{"abi":[{"type":"constructor","inputs":[{"name":"aggregator_","type":"address","internalType":"address"},{"name":"minFee_","type":"uint24","internalType":"uint24"},{"name":"maxFee_","type":"uint24","internalType":"uint24"},{"name":"baseFee_","type":"uint24","internalType":"uint24"},{"name":"volatilityMultiplier_","type":"uint24","internalType":"uint24"}],"stateMutability":"nonpayable"},{"type":"function","name":"AGGREGATOR","inputs":[],"outputs":[{"name":"","type":"address","internalType":"address"}],"stateMutability":"view"},{"type":"function","name":"afterAddLiquidity","inputs":[{"name":"","type":"address","internalType":"contract IPoolManager"},{"name":"","type":"address","internalType":"address"},{"name":"","type":"tuple","internalType":"struct PoolKey","components":[{"name":"currency0","type":"address","internalType":"Currency"},{"name":"currency1","type":"address","internalType":"Currency"},{"name":"fee","type":"uint24","internalType":"uint24"},{"name":"tickSpacing","type":"int24","internalType":"int24"},{"name":"hooks","type":"address","internalType":"contract IHooks"}]},{"name":"","type":"tuple","internalType":"struct ModifyLiquidityParams","components":[{"name":"tickLower","type":"int24","internalType":"int24"},{"name":"tickUpper","type":"int24","internalType":"int24"},{"name":"liquidityDelta","type":"int256","internalType":"int256"},{"name":"salt","type":"bytes32","internalType":"bytes32"}]},{"name":"","type":"int256","internalType":"BalanceDelta"},{"name":"","type":"int256","internalType":"BalanceDelta"},{"name":"","type":"bytes","internalType":"bytes"}],"outputs":[{"name":"","type":"tuple","internalType":"struct IMODLModule.BalanceDeltaResult","components":[{"name":"hasDelta","type":"bool","internalType":"bool"},{"name":"delta","type":"int256","internalType":"BalanceDelta"}]}],"stateMutability":"nonpayable"},{"type":"function","name":"afterDonate","inputs":[{"name":"","type":"address","internalType":"contract IPoolManager"},{"name":"","type":"address","internalType":"address"},{"name":"","type":"tuple","internalType":"struct PoolKey","components":[{"name":"currency0","type":"address","internalType":"Currency"},{"name":"currency1","type":"address","internalType":"Currency"},{"name":"fee","type":"uint24","internalType":"uint24"},{"name":"tickSpacing","type":"int24","internalType":"int24"},{"name":"hooks","type":"address","internalType":"contract IHooks"}]},{"name":"","type":"uint256","internalType":"uint256"},{"name":"","type":"uint256","internalType":"uint256"},{"name":"","type":"bytes","internalType":"bytes"}],"outputs":[],"stateMutability":"nonpayable"},{"type":"function","name":"afterInitialize","inputs":[{"name":"","type":"address","internalType":"contract IPoolManager"},{"name":"","type":"address","internalType":"address"},{"name":"","type":"tuple","internalType":"struct PoolKey","components":[{"name":"currency0","type":"address","internalType":"Currency"},{"name":"currency1","type":"address","internalType":"Currency"},{"name":"fee","type":"uint24","internalType":"uint24"},{"name":"tickSpacing","type":"int24","internalType":"int24"},{"name":"hooks","type":"address","internalType":"contract IHooks"}]},{"name":"","type":"uint160","internalType":"uint160"},{"name":"","type":"int24","internalType":"int24"}],"outputs":[],"stateMutability":"nonpayable"},{"type":"function","name":"afterRemoveLiquidity","inputs":[{"name":"","type":"address","internalType":"contract IPoolManager"},{"name":"","type":"address","internalType":"address"},{"name":"","type":"tuple","internalType":"struct PoolKey","components":[{"name":"currency0","type":"address","internalType":"Currency"},{"name":"currency1","type":"address","internalType":"Currency"},{"name":"fee","type":"uint24","internalType":"uint24"},{"name":"tickSpacing","type":"int24","internalType":"int24"},{"name":"hooks","type":"address","internalType":"contract IHooks"}]},{"name":"","type":"tuple","internalType":"struct ModifyLiquidityParams","components":[{"name":"tickLower","type":"int24","internalType":"int24"},{"name":"tickUpper","type":"int24","internalType":"int24"},{"name":"liquidityDelta","type":"int256","internalType":"int256"},{"name":"salt","type":"bytes32","internalType":"bytes32"}]},{"name":"","type":"int256","internalType":"BalanceDelta"},{"name":"","type":"int256","internalType":"BalanceDelta"},{"name":"","type":"bytes","internalType":"bytes"}],"outputs":[{"name":"","type":"tuple","internalType":"struct IMODLModule.BalanceDeltaResult","components":[{"name":"hasDelta","type":"bool","internalType":"bool"},{"name":"delta","type":"int256","internalType":"BalanceDelta"}]}],"stateMutability":"nonpayable"},{"type":"function","name":"afterSwap","inputs":[{"name":"","type":"address","internalType":"contract IPoolManager"},{"name":"","type":"address","internalType":"address"},{"name":"","type":"tuple","internalType":"struct PoolKey","components":[{"name":"currency0","type":"address","internalType":"Currency"},{"name":"currency1","type":"address","internalType":"Currency"},{"name":"fee","type":"uint24","internalType":"uint24"},{"name":"tickSpacing","type":"int24","internalType":"int24"},{"name":"hooks","type":"address","internalType":"contract IHooks"}]},{"name":"","type":"tuple","internalType":"struct SwapParams","components":[{"name":"zeroForOne","type":"bool","internalType":"bool"},{"name":"amountSpecified","type":"int256","internalType":"int256"},{"name":"sqrtPriceLimitX96","type":"uint160","internalType":"uint160"}]},{"name":"","type":"int256","internalType":"BalanceDelta"},{"name":"","type":"bytes","internalType":"bytes"}],"outputs":[{"name":"","type":"tuple","internalType":"struct IMODLModule.AfterSwapResult","components":[{"name":"hasDelta","type":"bool","internalType":"bool"},{"name":"delta","type":"int128","internalType":"int128"}]}],"stateMutability":"nonpayable"},{"type":"function","name":"baseFee","inputs":[],"outputs":[{"name":"","type":"uint24","internalType":"uint24"}],"stateMutability":"view"},{"type":"function","name":"beforeAddLiquidity","inputs":[{"name":"","type":"address","internalType":"contract IPoolManager"},{"name":"","type":"address","internalType":"address"},{"name":"","type":"tuple","internalType":"struct PoolKey","components":[{"name":"currency0","type":"address","internalType":"Currency"},{"name":"currency1","type":"address","internalType":"Currency"},{"name":"fee","type":"uint24","internalType":"uint24"},{"name":"tickSpacing","type":"int24","internalType":"int24"},{"name":"hooks","type":"address","internalType":"contract IHooks"}]},{"name":"","type":"tuple","internalType":"struct ModifyLiquidityParams","components":[{"name":"tickLower","type":"int24","internalType":"int24"},{"name":"tickUpper","type":"int24","internalType":"int24"},{"name":"liquidityDelta","type":"int256","internalType":"int256"},{"name":"salt","type":"bytes32","internalType":"bytes32"}]},{"name":"","type":"bytes","internalType":"bytes"}],"outputs":[],"stateMutability":"nonpayable"},{"type":"function","name":"beforeDonate","inputs":[{"name":"","type":"address","internalType":"contract IPoolManager"},{"name":"","type":"address","internalType":"address"},{"name":"","type":"tuple","internalType":"struct PoolKey","components":[{"name":"currency0","type":"address","internalType":"Currency"},{"name":"currency1","type":"address","internalType":"Currency"},{"name":"fee","type":"uint24","internalType":"uint24"},{"name":"tickSpacing","type":"int24","internalType":"int24"},{"name":"hooks","type":"address","internalType":"contract IHooks"}]},{"name":"","type":"uint256","internalType":"uint256"},{"name":"","type":"uint256","internalType":"uint256"},{"name":"","type":"bytes","internalType":"bytes"}],"outputs":[],"stateMutability":"nonpayable"},{"type":"function","name":"beforeInitialize","inputs":[{"name":"","type":"address","internalType":"contract IPoolManager"},{"name":"","type":"address","internalType":"address"},{"name":"","type":"tuple","internalType":"struct PoolKey","components":[{"name":"currency0","type":"address","internalType":"Currency"},{"name":"currency1","type":"address","internalType":"Currency"},{"name":"fee","type":"uint24","internalType":"uint24"},{"name":"tickSpacing","type":"int24","internalType":"int24"},{"name":"hooks","type":"address","internalType":"contract IHooks"}]},{"name":"","type":"uint160","internalType":"uint160"}],"outputs":[],"stateMutability":"nonpayable"},{"type":"function","name":"beforeRemoveLiquidity","inputs":[{"name":"","type":"address","internalType":"contract IPoolManager"},{"name":"","type":"address","internalType":"address"},{"name":"","type":"tuple","internalType":"struct PoolKey","components":[{"name":"currency0","type":"address","internalType":"Currency"},{"name":"currency1","type":"address","internalType":"Currency"},{"name":"fee","type":"uint24","internalType":"uint24"},{"name":"tickSpacing","type":"int24","internalType":"int24"},{"name":"hooks","type":"address","internalType":"contract IHooks"}]},{"name":"","type":"tuple","internalType":"struct ModifyLiquidityParams","components":[{"name":"tickLower","type":"int24","internalType":"int24"},{"name":"tickUpper","type":"int24","internalType":"int24"},{"name":"liquidityDelta","type":"int256","internalType":"int256"},{"name":"salt","type":"bytes32","internalType":"bytes32"}]},{"name":"","type":"bytes","internalType":"bytes"}],"outputs":[],"stateMutability":"nonpayable"},{"type":"function","name":"beforeSwap","inputs":[{"name":"","type":"address","internalType":"contract IPoolManager"},{"name":"","type":"address","internalType":"address"},{"name":"","type":"tuple","internalType":"struct PoolKey","components":[{"name":"currency0","type":"address","internalType":"Currency"},{"name":"currency1","type":"address","internalType":"Currency"},{"name":"fee","type":"uint24","internalType":"uint24"},{"name":"tickSpacing","type":"int24","internalType":"int24"},{"name":"hooks","type":"address","internalType":"contract IHooks"}]},{"name":"","type":"tuple","internalType":"struct SwapParams","components":[{"name":"zeroForOne","type":"bool","internalType":"bool"},{"name":"amountSpecified","type":"int256","internalType":"int256"},{"name":"sqrtPriceLimitX96","type":"uint160","internalType":"uint160"}]},{"name":"hookData","type":"bytes","internalType":"bytes"}],"outputs":[{"name":"","type":"tuple","internalType":"struct IMODLModule.BeforeSwapResult","components":[{"name":"hasDelta","type":"bool","internalType":"bool"},{"name":"delta","type":"int256","internalType":"BeforeSwapDelta"},{"name":"hasNewFee","type":"bool","internalType":"bool"},{"name":"newFee","type":"uint24","internalType":"uint24"}]}],"stateMutability":"nonpayable"},{"type":"function","name":"configureFeeWindow","inputs":[{"name":"minFee_","type":"uint24","internalType":"uint24"},{"name":"maxFee_","type":"uint24","internalType":"uint24"},{"name":"baseFee_","type":"uint24","internalType":"uint24"}],"outputs":[],"stateMutability":"nonpayable"},{"type":"function","name":"maxFee","inputs":[],"outputs":[{"name":"","type":"uint24","internalType":"uint24"}],"stateMutability":"view"},{"type":"function","name":"minFee","inputs":[],"outputs":[{"name":"","type":"uint24","internalType":"uint24"}],"stateMutability":"view"},{"type":"function","name":"moduleName","inputs":[],"outputs":[{"name":"","type":"string","internalType":"string"}],"stateMutability":"pure"},{"type":"function","name":"moduleVersion","inputs":[],"outputs":[{"name":"","type":"string","internalType":"string"}],"stateMutability":"pure"},{"type":"function","name":"owner","inputs":[],"outputs":[{"name":"","type":"address","internalType":"address"}],"stateMutability":"view"},{"type":"function","name":"renounceOwnership","inputs":[],"outputs":[],"stateMutability":"nonpayable"},{"type":"function","name":"setVolatilityIndex","inputs":[{"name":"newIndex","type":"uint24","internalType":"uint24"}],"outputs":[],"stateMutability":"nonpayable"},{"type":"function","name":"setVolatilityMultiplier","inputs":[{"name":"multiplier","type":"uint24","internalType":"uint24"}],"outputs":[],"stateMutability":"nonpayable"},{"type":"function","name":"transferOwnership","inputs":[{"name":"newOwner","type":"address","internalType":"address"}],"outputs":[],"stateMutability":"nonpayable"},{"type":"function","name":"volatilityIndex","inputs":[],"outputs":[{"name":"","type":"uint24","internalType":"uint24"}],"stateMutability":"view"},{"type":"function","name":"volatilityMultiplier","inputs":[],"outputs":[{"name":"","type":"uint24","internalType":"uint24"}],"stateMutability":"view"},{"type":"event","name":"FeeBoundsUpdated","inputs":[{"name":"minFee","type":"uint24","indexed":false,"internalType":"uint24"},{"name":"maxFee","type":"uint24","indexed":false,"internalType":"uint24"},{"name":"baseFee","type":"uint24","indexed":false,"internalType":"uint24"}],"anonymous":false},{"type":"event","name":"OwnershipTransferred","inputs":[{"name":"previousOwner","type":"address","indexed":true,"internalType":"address"},{"name":"newOwner","type":"address","indexed":true,"internalType":"address"}],"anonymous":false},{"type":"event","name":"VolatilityUpdated","inputs":[{"name":"index","type":"uint24","indexed":false,"internalType":"uint24"},{"name":"multiplier","type":"uint24","indexed":false,"internalType":"uint24"}],"anonymous":false},{"type":"error","name":"InvalidFeeBounds","inputs":[{"name":"minFee","type":"uint24","internalType":"uint24"},{"name":"maxFee","type":"uint24","internalType":"uint24"}]},{"type":"error","name":"NotAggregator","inputs":[{"name":"caller","type":"address","internalType":"address"}]},{"type":"error","name":"OwnableInvalidOwner","inputs":[{"name":"owner","type":"address","internalType":"address"}]},{"type":"error","name":"OwnableUnauthorizedAccount","inputs":[{"name":"account","type":"address","internalType":"address"}]}],"bytecode":{"object":"0x60a060405234801561000f575f80fd5b5060405161140838038061140883398101604081905261002e91610258565b338061005457604051631e4fbdf760e01b81525f60048201526024015b60405180910390fd5b61005d816100c1565b506001600160a01b038516610087576040516337705b1f60e01b81525f600482015260240161004b565b6001600160a01b03851660805261009f848484610110565b6001805462ffffff191662ffffff92909216919091179055506102c692505050565b5f80546001600160a01b038381166001600160a01b0319831681178455604051919092169283917f8be0079c531659141344cd1fd0a4f28419497f9722a3daafe3b4186f6b6457e09190a35050565b8162ffffff168362ffffff16118061012f5750620f424062ffffff8316115b1561015c5760405163f696465960e01b815262ffffff80851660048301528316602482015260440161004b565b8262ffffff168162ffffff16108061017d57508162ffffff168162ffffff16115b156101aa5760405163f696465960e01b815262ffffff80851660048301528316602482015260440161004b565b5f805465ffffffffffff60a01b1916600160a01b62ffffff86811691820262ffffff60b81b191692909217600160b81b8684169081029190911762ffffff60d01b1916600160d01b93861693840217909355604080519182526020820193909352918201527f21e378388fd2f5f2f3f384316809fe8d2a20548f5ac4f19d3133ea38ad05fb1c9060600160405180910390a1505050565b805162ffffff81168114610253575f80fd5b919050565b5f805f805f60a0868803121561026c575f80fd5b85516001600160a01b0381168114610282575f80fd5b945061029060208701610241565b935061029e60408701610241565b92506102ac60608701610241565b91506102ba60808701610241565b90509295509295909350565b6080516110f961030f5f395f81816103f4015281816104340152818161048c0152818161058901528181610607015281816106940152818161073701526107ed01526110f95ff3fe608060405234801561000f575f80fd5b506004361061018f575f3560e01c8063933efaf3116100dd578063baa3b4d711610088578063e108521a11610063578063e108521a146103da578063eb365adc146103ef578063f2fde38b14610416575f80fd5b8063baa3b4d7146103a1578063cab0dbeb14610317578063cbd9109614610224575f80fd5b8063ad66ca1f116100b8578063ad66ca1f146101c1578063b265113e1461037b578063b9d7310d1461038e575f80fd5b8063933efaf31461031757806393f0899a1461032a578063944b44681461036c575f80fd5b806342a29c221161013d5780636ef25c3a116101185780636ef25c3a146102d6578063715018a6146102eb5780638da5cb5b146102f3575f80fd5b806342a29c22146102245780634558d100146102545780635446fe9514610287575f80fd5b806324ec75901161016d57806324ec7590146101e95780632a59fc63146101fe5780633ccad32d14610211575f80fd5b806301f59d16146101935780630653cc8e146101c1578063249bca0a146101d6575b5f80fd5b5f546101a890600160b81b900462ffffff1681565b60405162ffffff90911681526020015b60405180910390f35b6101d46101cf366004610c22565b610429565b005b6101d46101e4366004610cab565b610481565b5f546101a890600160a01b900462ffffff1681565b6101d461020c366004610d36565b6104d3565b6101d461021f366004610d76565b6104eb565b610237610232366004610d96565b61056b565b6040805182511515815260209283015192810192909252016101b8565b610267610262366004610e43565b6105e9565b60408051825115158152602092830151600f0b92810192909252016101b8565b61029a610295366004610ed6565b610666565b6040516101b891908151151581526020808301519082015260408083015115159082015260609182015162ffffff169181019190915260800190565b5f546101a890600160d01b900462ffffff1681565b6101d4610719565b5f546001600160a01b03165b6040516001600160a01b0390911681526020016101b8565b6101d4610325366004610f41565b61072c565b60408051808201909152600a81527f44796e616d69634665650000000000000000000000000000000000000000000060208201525b6040516101b89190610fad565b6001546101a89062ffffff1681565b6101d4610389366004610d76565b610780565b6101d461039c366004610fe2565b6107e2565b60408051808201909152600581527f312e302e30000000000000000000000000000000000000000000000000000000602082015261035f565b5f546101a890600160e81b900462ffffff1681565b6102ff7f000000000000000000000000000000000000000000000000000000000000000081565b6101d461042436600461103b565b610833565b336001600160a01b037f00000000000000000000000000000000000000000000000000000000000000001614610479576040516337705b1f60e01b81523360048201526024015b60405180910390fd5b505050505050565b336001600160a01b037f000000000000000000000000000000000000000000000000000000000000000016146104cc576040516337705b1f60e01b8152336004820152602401610470565b5050505050565b6104db610870565b6104e683838361089c565b505050565b6104f3610870565b5f80547cffffffffffffffffffffffffffffffffffffffffffffffffffffffffff16600160e81b62ffffff8481169182029290921790925560015460408051938452911660208301527f1e07477d0654e40ea7253cc74c48b7f019987cf641da71072cecc2155f5cd07591015b60405180910390a150565b604080518082019091525f8082526020820152336001600160a01b037f000000000000000000000000000000000000000000000000000000000000000016146105c9576040516337705b1f60e01b8152336004820152602401610470565b50604080518082019091525f808252602082015298975050505050505050565b604080518082019091525f8082526020820152336001600160a01b037f00000000000000000000000000000000000000000000000000000000000000001614610647576040516337705b1f60e01b8152336004820152602401610470565b50604080518082019091525f8082526020820152979650505050505050565b604080516080810182525f808252602082018190529181018290526060810191909152336001600160a01b037f000000000000000000000000000000000000000000000000000000000000000016146106d4576040516337705b1f60e01b8152336004820152602401610470565b5f6106df8484610a15565b604080516080810182525f8082526020820152600191810191909152624000009190911762ffffff16606082015298975050505050505050565b610721610870565b61072a5f610a66565b565b336001600160a01b037f00000000000000000000000000000000000000000000000000000000000000001614610777576040516337705b1f60e01b8152336004820152602401610470565b50505050505050565b610788610870565b6001805462ffffff191662ffffff8381169182179092555f5460408051600160e81b909204909316815260208101919091527f1e07477d0654e40ea7253cc74c48b7f019987cf641da71072cecc2155f5cd0759101610560565b336001600160a01b037f0000000000000000000000000000000000000000000000000000000000000000161461082d576040516337705b1f60e01b8152336004820152602401610470565b50505050565b61083b610870565b6001600160a01b03811661086457604051631e4fbdf760e01b81525f6004820152602401610470565b61086d81610a66565b50565b5f546001600160a01b0316331461072a5760405163118cdaa760e01b8152336004820152602401610470565b8162ffffff168362ffffff1611806108bb5750620f424062ffffff8316115b156108e85760405163f696465960e01b815262ffffff808516600483015283166024820152604401610470565b8262ffffff168162ffffff16108061090957508162ffffff168162ffffff16115b156109365760405163f696465960e01b815262ffffff808516600483015283166024820152604401610470565b5f80547fffffffffffff000000000000ffffffffffffffffffffffffffffffffffffffff16600160a01b62ffffff8681169182027fffffffffffff000000ffffffffffffffffffffffffffffffffffffffffffffff1692909217600160b81b868416908102919091177fffffff000000ffffffffffffffffffffffffffffffffffffffffffffffffffff16600160d01b93861693840217909355604080519182526020820193909352918201527f21e378388fd2f5f2f3f384316809fe8d2a20548f5ac4f19d3133ea38ad05fb1c9060600160405180910390a1505050565b5f818103610a2c57610a25610acd565b9050610a60565b5f610a3983850185611056565b8051909150610a4f57610a4a610acd565b610a5c565b610a5c8160200151610b46565b9150505b92915050565b5f80546001600160a01b038381167fffffffffffffffffffffffff0000000000000000000000000000000000000000831681178455604051919092169283917f8be0079c531659141344cd1fd0a4f28419497f9722a3daafe3b4186f6b6457e09190a35050565b6001545f8054909161271062ffffff918216600160e81b84048316020491600160d01b81048216830191600160b81b90910416811115610b1c5750505f54600160b81b900462ffffff16919050565b5f54600160a01b900462ffffff16811015610a605750505f54600160a01b900462ffffff16919050565b5f805462ffffff600160a01b90910481169083161015610b735750505f54600160a01b900462ffffff1690565b5f5462ffffff600160b81b90910481169083161115610b9f5750505f54600160b81b900462ffffff1690565b5090565b6001600160a01b038116811461086d575f80fd5b5f60a08284031215610bc7575f80fd5b50919050565b5f60808284031215610bc7575f80fd5b5f8083601f840112610bed575f80fd5b50813567ffffffffffffffff811115610c04575f80fd5b602083019150836020828501011115610c1b575f80fd5b9250929050565b5f805f805f806101808789031215610c38575f80fd5b8635610c4381610ba3565b95506020870135610c5381610ba3565b9450610c628860408901610bb7565b9350610c718860e08901610bcd565b925061016087013567ffffffffffffffff811115610c8d575f80fd5b610c9989828a01610bdd565b979a9699509497509295939492505050565b5f805f805f6101208688031215610cc0575f80fd5b8535610ccb81610ba3565b94506020860135610cdb81610ba3565b9350610cea8760408801610bb7565b925060e0860135610cfa81610ba3565b9150610100860135600281900b8114610d11575f80fd5b809150509295509295909350565b803562ffffff81168114610d31575f80fd5b919050565b5f805f60608486031215610d48575f80fd5b610d5184610d1f565b9250610d5f60208501610d1f565b9150610d6d60408501610d1f565b90509250925092565b5f60208284031215610d86575f80fd5b610d8f82610d1f565b9392505050565b5f805f805f805f806101c0898b031215610dae575f80fd5b8835610db981610ba3565b97506020890135610dc981610ba3565b9650610dd88a60408b01610bb7565b9550610de78a60e08b01610bcd565b9450610160890135935061018089013592506101a089013567ffffffffffffffff811115610e13575f80fd5b610e1f8b828c01610bdd565b999c989b5096995094979396929594505050565b5f60608284031215610bc7575f80fd5b5f805f805f805f610180888a031215610e5a575f80fd5b8735610e6581610ba3565b96506020880135610e7581610ba3565b9550610e848960408a01610bb7565b9450610e938960e08a01610e33565b9350610140880135925061016088013567ffffffffffffffff811115610eb7575f80fd5b610ec38a828b01610bdd565b989b979a50959850939692959293505050565b5f805f805f806101608789031215610eec575f80fd5b8635610ef781610ba3565b95506020870135610f0781610ba3565b9450610f168860408901610bb7565b9350610f258860e08901610e33565b925061014087013567ffffffffffffffff811115610c8d575f80fd5b5f805f805f805f610140888a031215610f58575f80fd5b8735610f6381610ba3565b96506020880135610f7381610ba3565b9550610f828960408a01610bb7565b945060e08801359350610100880135925061012088013567ffffffffffffffff811115610eb7575f80fd5b602081525f82518060208401528060208501604085015e5f604082850101526040601f19601f83011684010191505092915050565b5f805f806101008587031215610ff6575f80fd5b843561100181610ba3565b9350602085013561101181610ba3565b92506110208660408701610bb7565b915060e085013561103081610ba3565b939692955090935050565b5f6020828403121561104b575f80fd5b8135610d8f81610ba3565b5f6040828403128015611067575f80fd5b506040805190810167ffffffffffffffff8111828210171561109757634e487b7160e01b5f52604160045260245ffd5b604052823580151581146110a9575f80fd5b81526110b760208401610d1f565b6020820152939250505056fea2646970667358221220403387ff7b7fca9afa03f773b7346ffc53f7c46e6741c55228b8ae3257b5476364736f6c634300081a0033","linkReferences":{}},"methodIdentifiers":{"AGGREGATOR()":"eb365adc","afterAddLiquidity(address,address,(address,address,uint24,int24,address),(int24,int24,int256,bytes32),int256,int256,bytes)":"42a29c22","afterDonate(address,address,(address,address,uint24,int24,address),uint256,uint256,bytes)":"933efaf3","afterInitialize(address,address,(address,address,uint24,int24,address),uint160,int24)":"249bca0a","afterRemoveLiquidity(address,address,(address,address,uint24,int24,address),(int24,int24,int256,bytes32),int256,int256,bytes)":"cbd91096","afterSwap(address,address,(address,address,uint24,int24,address),(bool,int256,uint160),int256,bytes)":"4558d100","baseFee()":"6ef25c3a","beforeAddLiquidity(address,address,(address,address,uint24,int24,address),(int24,int24,int256,bytes32),bytes)":"ad66ca1f","beforeDonate(address,address,(address,address,uint24,int24,address),uint256,uint256,bytes)":"cab0dbeb","beforeInitialize(address,address,(address,address,uint24,int24,address),uint160)":"b9d7310d","beforeRemoveLiquidity(address,address,(address,address,uint24,int24,address),(int24,int24,int256,bytes32),bytes)":"0653cc8e","beforeSwap(address,address,(address,address,uint24,int24,address),(bool,int256,uint160),bytes)":"5446fe95","configureFeeWindow(uint24,uint24,uint24)":"2a59fc63","maxFee()":"01f59d16","minFee()":"24ec7590","moduleName()":"93f0899a","moduleVersion()":"baa3b4d7","owner()":"8da5cb5b","renounceOwnership()":"715018a6","setVolatilityIndex(uint24)":"3ccad32d","setVolatilityMultiplier(uint24)":"b265113e","transferOwnership(address)":"f2fde38b","volatilityIndex()":"e108521a","volatilityMultiplier()":"944b4468"},"id":44}