{"abi":[{"type":"constructor","inputs":[{"name":"poolManager","type":"address","internalType":"contract IPoolManager"},{"name":"initialModules","type":"tuple[]","internalType":"struct MODLAggregator.ModuleConfigInput[]","components":[{"name":"module","type":"address","internalType":"contract IMODLModule"},{"name":"hooks","type":"tuple","internalType":"struct MODLAggregator.ModuleHooks","components":[{"name":"beforeInitialize","type":"bool","internalType":"bool"},{"name":"afterInitialize","type":"bool","internalType":"bool"},{"name":"beforeAddLiquidity","type":"bool","internalType":"bool"},{"name":"afterAddLiquidity","type":"bool","internalType":"bool"},{"name":"beforeRemoveLiquidity","type":"bool","internalType":"bool"},{"name":"afterRemoveLiquidity","type":"bool","internalType":"bool"},{"name":"beforeSwap","type":"bool","internalType":"bool"},{"name":"afterSwap","type":"bool","internalType":"bool"},{"name":"beforeDonate","type":"bool","internalType":"bool"},{"name":"afterDonate","type":"bool","internalType":"bool"}]},{"name":"critical","type":"bool","internalType":"bool"},{"name":"priority","type":"uint32","internalType":"uint32"},{"name":"gasLimit","type":"uint32","internalType":"uint32"}]}],"stateMutability":"nonpayable"},{"type":"fallback","stateMutability":"payable"},{"type":"receive","stateMutability":"payable"},{"type":"function","name":"MAX_MODULES","inputs":[],"outputs":[{"name":"","type":"uint256","internalType":"uint256"}],"stateMutability":"view"},{"type":"function","name":"afterAddLiquidity","inputs":[{"name":"sender","type":"address","internalType":"address"},{"name":"key","type":"tuple","internalType":"struct PoolKey","components":[{"name":"currency0","type":"address","internalType":"Currency"},{"name":"currency1","type":"address","internalType":"Currency"},{"name":"fee","type":"uint24","internalType":"uint24"},{"name":"tickSpacing","type":"int24","internalType":"int24"},{"name":"hooks","type":"address","internalType":"contract IHooks"}]},{"name":"params","type":"tuple","internalType":"struct ModifyLiquidityParams","components":[{"name":"tickLower","type":"int24","internalType":"int24"},{"name":"tickUpper","type":"int24","internalType":"int24"},{"name":"liquidityDelta","type":"int256","internalType":"int256"},{"name":"salt","type":"bytes32","internalType":"bytes32"}]},{"name":"delta","type":"int256","internalType":"BalanceDelta"},{"name":"feesAccrued","type":"int256","internalType":"BalanceDelta"},{"name":"hookData","type":"bytes","internalType":"bytes"}],"outputs":[{"name":"","type":"bytes4","internalType":"bytes4"},{"name":"","type":"int256","internalType":"BalanceDelta"}],"stateMutability":"nonpayable"},{"type":"function","name":"afterDonate","inputs":[{"name":"sender","type":"address","internalType":"address"},{"name":"key","type":"tuple","internalType":"struct PoolKey","components":[{"name":"currency0","type":"address","internalType":"Currency"},{"name":"currency1","type":"address","internalType":"Currency"},{"name":"fee","type":"uint24","internalType":"uint24"},{"name":"tickSpacing","type":"int24","internalType":"int24"},{"name":"hooks","type":"address","internalType":"contract IHooks"}]},{"name":"amount0","type":"uint256","internalType":"uint256"},{"name":"amount1","type":"uint256","internalType":"uint256"},{"name":"hookData","type":"bytes","internalType":"bytes"}],"outputs":[{"name":"","type":"bytes4","internalType":"bytes4"}],"stateMutability":"nonpayable"},{"type":"function","name":"afterInitialize","inputs":[{"name":"sender","type":"address","internalType":"address"},{"name":"key","type":"tuple","internalType":"struct PoolKey","components":[{"name":"currency0","type":"address","internalType":"Currency"},{"name":"currency1","type":"address","internalType":"Currency"},{"name":"fee","type":"uint24","internalType":"uint24"},{"name":"tickSpacing","type":"int24","internalType":"int24"},{"name":"hooks","type":"address","internalType":"contract IHooks"}]},{"name":"sqrtPriceX96","type":"uint160","internalType":"uint160"},{"name":"tick","type":"int24","internalType":"int24"}],"outputs":[{"name":"","type":"bytes4","internalType":"bytes4"}],"stateMutability":"nonpayable"},{"type":"function","name":"afterRemoveLiquidity","inputs":[{"name":"sender","type":"address","internalType":"address"},{"name":"key","type":"tuple","internalType":"struct PoolKey","components":[{"name":"currency0","type":"address","internalType":"Currency"},{"name":"currency1","type":"address","internalType":"Currency"},{"name":"fee","type":"uint24","internalType":"uint24"},{"name":"tickSpacing","type":"int24","internalType":"int24"},{"name":"hooks","type":"address","internalType":"contract IHooks"}]},{"name":"params","type":"tuple","internalType":"struct ModifyLiquidityParams","components":[{"name":"tickLower","type":"int24","internalType":"int24"},{"name":"tickUpper","type":"int24","internalType":"int24"},{"name":"liquidityDelta","type":"int256","internalType":"int256"},{"name":"salt","type":"bytes32","internalType":"bytes32"}]},{"name":"delta","type":"int256","internalType":"BalanceDelta"},{"name":"feesAccrued","type":"int256","internalType":"BalanceDelta"},{"name":"hookData","type":"bytes","internalType":"bytes"}],"outputs":[{"name":"","type":"bytes4","internalType":"bytes4"},{"name":"","type":"int256","internalType":"BalanceDelta"}],"stateMutability":"nonpayable"},{"type":"function","name":"afterSwap","inputs":[{"name":"sender","type":"address","internalType":"address"},{"name":"key","type":"tuple","internalType":"struct PoolKey","components":[{"name":"currency0","type":"address","internalType":"Currency"},{"name":"currency1","type":"address","internalType":"Currency"},{"name":"fee","type":"uint24","internalType":"uint24"},{"name":"tickSpacing","type":"int24","internalType":"int24"},{"name":"hooks","type":"address","internalType":"contract IHooks"}]},{"name":"params","type":"tuple","internalType":"struct SwapParams","components":[{"name":"zeroForOne","type":"bool","internalType":"bool"},{"name":"amountSpecified","type":"int256","internalType":"int256"},{"name":"sqrtPriceLimitX96","type":"uint160","internalType":"uint160"}]},{"name":"delta","type":"int256","internalType":"BalanceDelta"},{"name":"hookData","type":"bytes","internalType":"bytes"}],"outputs":[{"name":"","type":"bytes4","internalType":"bytes4"},{"name":"","type":"int128","internalType":"int128"}],"stateMutability":"nonpayable"},{"type":"function","name":"beforeAddLiquidity","inputs":[{"name":"sender","type":"address","internalType":"address"},{"name":"key","type":"tuple","internalType":"struct PoolKey","components":[{"name":"currency0","type":"address","internalType":"Currency"},{"name":"currency1","type":"address","internalType":"Currency"},{"name":"fee","type":"uint24","internalType":"uint24"},{"name":"tickSpacing","type":"int24","internalType":"int24"},{"name":"hooks","type":"address","internalType":"contract IHooks"}]},{"name":"params","type":"tuple","internalType":"struct ModifyLiquidityParams","components":[{"name":"tickLower","type":"int24","internalType":"int24"},{"name":"tickUpper","type":"int24","internalType":"int24"},{"name":"liquidityDelta","type":"int256","internalType":"int256"},{"name":"salt","type":"bytes32","internalType":"bytes32"}]},{"name":"hookData","type":"bytes","internalType":"bytes"}],"outputs":[{"name":"","type":"bytes4","internalType":"bytes4"}],"stateMutability":"nonpayable"},{"type":"function","name":"beforeDonate","inputs":[{"name":"sender","type":"address","internalType":"address"},{"name":"key","type":"tuple","internalType":"struct PoolKey","components":[{"name":"currency0","type":"address","internalType":"Currency"},{"name":"currency1","type":"address","internalType":"Currency"},{"name":"fee","type":"uint24","internalType":"uint24"},{"name":"tickSpacing","type":"int24","internalType":"int24"},{"name":"hooks","type":"address","internalType":"contract IHooks"}]},{"name":"amount0","type":"uint256","internalType":"uint256"},{"name":"amount1","type":"uint256","internalType":"uint256"},{"name":"hookData","type":"bytes","internalType":"bytes"}],"outputs":[{"name":"","type":"bytes4","internalType":"bytes4"}],"stateMutability":"nonpayable"},{"type":"function","name":"beforeInitialize","inputs":[{"name":"sender","type":"address","internalType":"address"},{"name":"key","type":"tuple","internalType":"struct PoolKey","components":[{"name":"currency0","type":"address","internalType":"Currency"},{"name":"currency1","type":"address","internalType":"Currency"},{"name":"fee","type":"uint24","internalType":"uint24"},{"name":"tickSpacing","type":"int24","internalType":"int24"},{"name":"hooks","type":"address","internalType":"contract IHooks"}]},{"name":"sqrtPriceX96","type":"uint160","internalType":"uint160"}],"outputs":[{"name":"","type":"bytes4","internalType":"bytes4"}],"stateMutability":"nonpayable"},{"type":"function","name":"beforeRemoveLiquidity","inputs":[{"name":"sender","type":"address","internalType":"address"},{"name":"key","type":"tuple","internalType":"struct PoolKey","components":[{"name":"currency0","type":"address","internalType":"Currency"},{"name":"currency1","type":"address","internalType":"Currency"},{"name":"fee","type":"uint24","internalType":"uint24"},{"name":"tickSpacing","type":"int24","internalType":"int24"},{"name":"hooks","type":"address","internalType":"contract IHooks"}]},{"name":"params","type":"tuple","internalType":"struct ModifyLiquidityParams","components":[{"name":"tickLower","type":"int24","internalType":"int24"},{"name":"tickUpper","type":"int24","internalType":"int24"},{"name":"liquidityDelta","type":"int256","internalType":"int256"},{"name":"salt","type":"bytes32","internalType":"bytes32"}]},{"name":"hookData","type":"bytes","internalType":"bytes"}],"outputs":[{"name":"","type":"bytes4","internalType":"bytes4"}],"stateMutability":"nonpayable"},{"type":"function","name":"beforeSwap","inputs":[{"name":"sender","type":"address","internalType":"address"},{"name":"key","type":"tuple","internalType":"struct PoolKey","components":[{"name":"currency0","type":"address","internalType":"Currency"},{"name":"currency1","type":"address","internalType":"Currency"},{"name":"fee","type":"uint24","internalType":"uint24"},{"name":"tickSpacing","type":"int24","internalType":"int24"},{"name":"hooks","type":"address","internalType":"contract IHooks"}]},{"name":"params","type":"tuple","internalType":"struct SwapParams","components":[{"name":"zeroForOne","type":"bool","internalType":"bool"},{"name":"amountSpecified","type":"int256","internalType":"int256"},{"name":"sqrtPriceLimitX96","type":"uint160","internalType":"uint160"}]},{"name":"hookData","type":"bytes","internalType":"bytes"}],"outputs":[{"name":"","type":"bytes4","internalType":"bytes4"},{"name":"","type":"int256","internalType":"BeforeSwapDelta"},{"name":"","type":"uint24","internalType":"uint24"}],"stateMutability":"nonpayable"},{"type":"function","name":"clearRoute","inputs":[{"name":"selector","type":"bytes4","internalType":"bytes4"}],"outputs":[],"stateMutability":"nonpayable"},{"type":"function","name":"getHookPermissions","inputs":[],"outputs":[{"name":"","type":"tuple","internalType":"struct Hooks.Permissions","components":[{"name":"beforeInitialize","type":"bool","internalType":"bool"},{"name":"afterInitialize","type":"bool","internalType":"bool"},{"name":"beforeAddLiquidity","type":"bool","internalType":"bool"},{"name":"afterAddLiquidity","type":"bool","internalType":"bool"},{"name":"beforeRemoveLiquidity","type":"bool","internalType":"bool"},{"name":"afterRemoveLiquidity","type":"bool","internalType":"bool"},{"name":"beforeSwap","type":"bool","internalType":"bool"},{"name":"afterSwap","type":"bool","internalType":"bool"},{"name":"beforeDonate","type":"bool","internalType":"bool"},{"name":"afterDonate","type":"bool","internalType":"bool"},{"name":"beforeSwapReturnDelta","type":"bool","internalType":"bool"},{"name":"afterSwapReturnDelta","type":"bool","internalType":"bool"},{"name":"afterAddLiquidityReturnDelta","type":"bool","internalType":"bool"},{"name":"afterRemoveLiquidityReturnDelta","type":"bool","internalType":"bool"}]}],"stateMutability":"pure"},{"type":"function","name":"getModules","inputs":[],"outputs":[{"name":"views","type":"tuple[]","internalType":"struct MODLAggregator.ModuleConfigView[]","components":[{"name":"module","type":"address","internalType":"contract IMODLModule"},{"name":"hooks","type":"tuple","internalType":"struct MODLAggregator.ModuleHooks","components":[{"name":"beforeInitialize","type":"bool","internalType":"bool"},{"name":"afterInitialize","type":"bool","internalType":"bool"},{"name":"beforeAddLiquidity","type":"bool","internalType":"bool"},{"name":"afterAddLiquidity","type":"bool","internalType":"bool"},{"name":"beforeRemoveLiquidity","type":"bool","internalType":"bool"},{"name":"afterRemoveLiquidity","type":"bool","internalType":"bool"},{"name":"beforeSwap","type":"bool","internalType":"bool"},{"name":"afterSwap","type":"bool","internalType":"bool"},{"name":"beforeDonate","type":"bool","internalType":"bool"},{"name":"afterDonate","type":"bool","internalType":"bool"}]},{"name":"critical","type":"bool","internalType":"bool"},{"name":"priority","type":"uint32","internalType":"uint32"},{"name":"gasLimit","type":"uint32","internalType":"uint32"}]}],"stateMutability":"view"},{"type":"function","name":"isModuleRegistered","inputs":[{"name":"module","type":"address","internalType":"address"}],"outputs":[{"name":"","type":"bool","internalType":"bool"}],"stateMutability":"view"},{"type":"function","name":"moduleCount","inputs":[],"outputs":[{"name":"","type":"uint256","internalType":"uint256"}],"stateMutability":"view"},{"type":"function","name":"owner","inputs":[],"outputs":[{"name":"","type":"address","internalType":"address"}],"stateMutability":"view"},{"type":"function","name":"poolManager","inputs":[],"outputs":[{"name":"","type":"address","internalType":"contract IPoolManager"}],"stateMutability":"view"},{"type":"function","name":"renounceOwnership","inputs":[],"outputs":[],"stateMutability":"nonpayable"},{"type":"function","name":"routes","inputs":[{"name":"selector","type":"bytes4","internalType":"bytes4"}],"outputs":[{"name":"mode","type":"uint8","internalType":"enum MODLAggregator.ExecMode"}],"stateMutability":"view"},{"type":"function","name":"setModules","inputs":[{"name":"configs","type":"tuple[]","internalType":"struct MODLAggregator.ModuleConfigInput[]","components":[{"name":"module","type":"address","internalType":"contract IMODLModule"},{"name":"hooks","type":"tuple","internalType":"struct MODLAggregator.ModuleHooks","components":[{"name":"beforeInitialize","type":"bool","internalType":"bool"},{"name":"afterInitialize","type":"bool","internalType":"bool"},{"name":"beforeAddLiquidity","type":"bool","internalType":"bool"},{"name":"afterAddLiquidity","type":"bool","internalType":"bool"},{"name":"beforeRemoveLiquidity","type":"bool","internalType":"bool"},{"name":"afterRemoveLiquidity","type":"bool","internalType":"bool"},{"name":"beforeSwap","type":"bool","internalType":"bool"},{"name":"afterSwap","type":"bool","internalType":"bool"},{"name":"beforeDonate","type":"bool","internalType":"bool"},{"name":"afterDonate","type":"bool","internalType":"bool"}]},{"name":"critical","type":"bool","internalType":"bool"},{"name":"priority","type":"uint32","internalType":"uint32"},{"name":"gasLimit","type":"uint32","internalType":"uint32"}]}],"outputs":[],"stateMutability":"nonpayable"},{"type":"function","name":"setRoute","inputs":[{"name":"selector","type":"bytes4","internalType":"bytes4"},{"name":"moduleIndices","type":"uint16[]","internalType":"uint16[]"},{"name":"mode","type":"uint8","internalType":"enum MODLAggregator.ExecMode"}],"outputs":[],"stateMutability":"nonpayable"},{"type":"function","name":"transferOwnership","inputs":[{"name":"newOwner","type":"address","internalType":"address"}],"outputs":[],"stateMutability":"nonpayable"},{"type":"event","name":"ModuleConfigured","inputs":[{"name":"module","type":"address","indexed":true,"internalType":"address"},{"name":"priority","type":"uint32","indexed":false,"internalType":"uint32"},{"name":"hooksBitmap","type":"uint16","indexed":false,"internalType":"uint16"},{"name":"critical","type":"bool","indexed":false,"internalType":"bool"},{"name":"gasLimit","type":"uint32","indexed":false,"internalType":"uint32"}],"anonymous":false},{"type":"event","name":"ModuleExecutionSkipped","inputs":[{"name":"module","type":"address","indexed":true,"internalType":"address"},{"name":"hook","type":"uint8","indexed":false,"internalType":"enum MODLAggregator.Hook"},{"name":"reason","type":"bytes","indexed":false,"internalType":"bytes"}],"anonymous":false},{"type":"event","name":"OwnershipTransferred","inputs":[{"name":"previousOwner","type":"address","indexed":true,"internalType":"address"},{"name":"newOwner","type":"address","indexed":true,"internalType":"address"}],"anonymous":false},{"type":"event","name":"RouteCleared","inputs":[{"name":"selector","type":"bytes4","indexed":true,"internalType":"bytes4"}],"anonymous":false},{"type":"event","name":"RouteSet","inputs":[{"name":"selector","type":"bytes4","indexed":true,"internalType":"bytes4"},{"name":"moduleIndices","type":"uint16[]","indexed":false,"internalType":"uint16[]"},{"name":"mode","type":"uint8","indexed":false,"internalType":"enum MODLAggregator.ExecMode"}],"anonymous":false},{"type":"error","name":"DuplicateModule","inputs":[{"name":"module","type":"address","internalType":"address"}]},{"type":"error","name":"EmptyRoute","inputs":[]},{"type":"error","name":"HookNotImplemented","inputs":[]},{"type":"error","name":"InvalidModule","inputs":[{"name":"module","type":"address","internalType":"address"}]},{"type":"error","name":"InvalidRouteIndex","inputs":[{"name":"index","type":"uint16","internalType":"uint16"}]},{"type":"error","name":"ModuleExecutionFailed","inputs":[{"name":"module","type":"address","internalType":"address"},{"name":"hook","type":"uint8","internalType":"enum MODLAggregator.Hook"},{"name":"reason","type":"bytes","internalType":"bytes"}]},{"type":"error","name":"NotPoolManager","inputs":[]},{"type":"error","name":"OwnableInvalidOwner","inputs":[{"name":"owner","type":"address","internalType":"address"}]},{"type":"error","name":"OwnableUnauthorizedAccount","inputs":[{"name":"account","type":"address","internalType":"address"}]},{"type":"error","name":"RouteNotFound","inputs":[{"name":"selector","type":"bytes4","internalType":"bytes4"}]},{"type":"error","name":"TooManyModules","inputs":[{"name":"attempted","type":"uint256","internalType":"uint256"}]}],"bytecode":{"object":"0x60a060405234801561000f575f80fd5b506040516155fa3803806155fa83398101604081905261002e91610ef7565b6001600160a01b038216608052338061006157604051631e4fbdf760e01b81525f60048201526024015b60405180910390fd5b61006a81610085565b5080511561007b5761007b816100d4565b505061111e565b50565b5f80546001600160a01b038381166001600160a01b0319831681178455604051919092169283917f8be0079c531659141344cd1fd0a4f28419497f9722a3daafe3b4186f6b6457e09190a35050565b6100dc6103d4565b805160108111156101035760405163685ce4e560e01b815260048101829052602401610058565b61010b610402565b61011660015f610da6565b61011e610458565b5f5b818110156103bf575f83828151811061013b5761013b6110e5565b602090810291909101015180519091506001600160a01b03811661017457604051635c93ff2f60e11b81525f6004820152602401610058565b6001600160a01b0381165f9081526002602052604090205460ff16156101b857604051630da3f63f60e41b81526001600160a01b0382166004820152602401610058565b5f6101cc83602001516105b960201b60201c565b905060016040518060a00160405280855f01516001600160a01b031681526020018361ffff168152602001856040015115158152602001856060015163ffffffff168152602001856080015163ffffffff16815250908060018154018082558091505060019003905f5260205f20015f909190919091505f820151815f015f6101000a8154816001600160a01b0302191690836001600160a01b031602179055506020820151815f0160146101000a81548161ffff021916908361ffff1602179055506040820151815f0160166101000a81548160ff0219169083151502179055506060820151815f0160176101000a81548163ffffffff021916908363ffffffff1602179055506080820151815f01601b6101000a81548163ffffffff021916908363ffffffff1602179055505050600160025f846001600160a01b03166001600160a01b031681526020019081526020015f205f6101000a81548160ff021916908315150217905550816001600160a01b03167f19a589ad25e4dcafa1eea7536ddcc5357b57d26464daa25393e17503f65d9092846060015183866040015187608001516040516103a9949392919063ffffffff948516815261ffff9390931660208401529015156040830152909116606082015260800190565b60405180910390a2836001019350505050610120565b506103c861064d565b6103d06108ec565b5050565b5f546001600160a01b031633146104005760405163118cdaa760e01b8152336004820152602401610058565b565b6001545f5b818110156103d05760025f60018381548110610425576104256110e5565b5f9182526020808320909101546001600160a01b031683528201929092526040019020805460ff19169055600101610407565b60015f908152600460205261047b905f805160206154da83398151915290610dc1565b60025f908152600460205261049e905f805160206155da83398151915290610dc1565b60045f8181526020919091526104c2905f8051602061553a83398151915290610dc1565b60085f90815260046020526104e5905f8051602061557a83398151915290610dc1565b60105f9081526004602052610508905f8051602061559a83398151915290610dc1565b60205f818152600490915261052b905f8051602061555a83398151915290610dc1565b60405f908152600460205261054e905f805160206154fa83398151915290610dc1565b60805f9081526004602052610571905f8051602061551a83398151915290610dc1565b6101005f9081526004602052610595905f805160206155ba83398151915290610dc1565b6102005f9081526004602052610400905f805160206154ba83398151915290610dc1565b80515f90156105c6576001175b8160200151156105d4576002175b8160400151156105e2576004175b8160600151156105f0576008175b8160800151156105fe576010175b8160a001511561060c576020175b8160c001511561061a576040175b8160e0015115610628576080175b8161010001511561063857610100175b8161012001511561064857610200175b919050565b60018054905b818110156103d0575f6001828154811061066f5761066f6110e5565b5f9182526020918290206040805160a08101825292909101546001600160a01b038116835261ffff600160a01b8204169383019390935260ff600160b01b84041615159082015263ffffffff600160b81b830481166060830152600160d81b90920490911660808201529050815b5f81118015610726575060016106f381836110f9565b81548110610703576107036110e5565b5f91825260209091200154606083015163ffffffff600160b81b90920482169116105b1561082e57600161073781836110f9565b81548110610747576107476110e5565b905f5260205f200160018281548110610762576107626110e5565b5f91825260209091208254910180546001600160a01b031981166001600160a01b039093169283178255835461ffff600160a01b9182900416026001600160b01b031990911690921791909117808255825460ff600160b01b918290041615150260ff60b01b19821681178355835463ffffffff600160b81b91829004811690910263ffffffff60b81b1990921664ffffffffff60b01b1990931692909217178083559254600160d81b908190049091160263ffffffff60d81b199092169190911790555f19016106dd565b8160018281548110610842576108426110e5565b5f91825260209182902083519101805492840151604085015160608601516080909601516001600160a01b039094166001600160b01b031990951694909417600160a01b61ffff909216919091021764ffffffffff60b01b1916600160b01b9315159390930263ffffffff60b81b191692909217600160b81b63ffffffff948516021763ffffffff60d81b1916600160d81b93909116929092029190911790555050600101610653565b6001545f5b818110156103d0575f6001828154811061090d5761090d6110e5565b5f91825260209091200154600160a01b900461ffff811691508290600116156109995760046020525f805160206154da83398151915280546001810182555f919091527f210afe6ebef982fa193bb4e17f9f236cdf09af7788627b5d54d9e3e4b100021b60108204018054600f9092166002026101000a61ffff81810219909316928416029190911790555b6002821615610a0a5760046020525f805160206155da83398151915280546001810182555f91909152601081047fff2ead72d53401d823f4de3290714b95c588de2c574133f57728a2d3d3763d3a01805461ffff848116600f9094166002026101000a938402930219169190911790555b6004821615610a7c5760046020525f8051602061553a83398151915280546001810182555f919091527fae1f6f36060f166f063fb01d63adab80297f56b5a444cab19384c535141dbd8b60108204018054600f9092166002026101000a61ffff81810219909316928416029190911790555b6008821615610aee5760046020525f8051602061557a83398151915280546001810182555f919091527fcc6aa2a08d9e8793dee28db7627f0ec74b54801bc30f440b4f9a630a5949feec60108204018054600f9092166002026101000a61ffff81810219909316928416029190911790555b6010821615610b605760046020525f8051602061559a83398151915280546001810182555f919091527fd8c6832197dc0c3930239699461a8f431057c25fb4a30f0cea401fd64287002e60108204018054600f9092166002026101000a61ffff81810219909316928416029190911790555b6020821615610bd25760046020525f8051602061555a83398151915280546001810182555f919091527fb3445e761574b6336210950b4f5b43da25caa8da3816f667f2420b8f97e90ffb60108204018054600f9092166002026101000a61ffff81810219909316928416029190911790555b6040821615610c445760046020525f805160206154fa83398151915280546001810182555f919091527f4409212596eb52df8e35e10419c133c0a2db5d8f19a24ecc7e4ee77ab96157eb60108204018054600f9092166002026101000a61ffff81810219909316928416029190911790555b6080821615610cb65760046020525f8051602061551a83398151915280546001810182555f919091527f9fa1545be3672894e99c57981650092e85cec3204230a01ecd7ed80942acded060108204018054600f9092166002026101000a61ffff81810219909316928416029190911790555b610100821615610d295760046020525f805160206155ba83398151915280546001810182555f919091527ffc7e57cc06035285e5e71f822152177096044123176cfd5ed4aeb6022387011a60108204018054600f9092166002026101000a61ffff81810219909316928416029190911790555b610200821615610d9c5760046020525f805160206154ba83398151915280546001810182555f919091527f0972b310bff4babc0b46014b4f1e11e60b6ec8d3e44e4fb322fa8e576f0138cf60108204018054600f9092166002026101000a61ffff81810219909316928416029190911790555b50506001016108f1565b5080545f8255905f5260205f20908101906100829190610de3565b5080545f8255600f0160109004905f5260205f20908101906100829190610e1e565b5b80821115610e1a5780547fff00000000000000000000000000000000000000000000000000000000000000168155600101610de4565b5090565b5b80821115610e1a575f8155600101610e1f565b6001600160a01b0381168114610082575f80fd5b634e487b7160e01b5f52604160045260245ffd5b60405160a081016001600160401b0381118282101715610e7c57610e7c610e46565b60405290565b60405161014081016001600160401b0381118282101715610e7c57610e7c610e46565b604051601f8201601f191681016001600160401b0381118282101715610ecd57610ecd610e46565b604052919050565b80518015158114610648575f80fd5b805163ffffffff81168114610648575f80fd5b5f8060408385031215610f08575f80fd5b8251610f1381610e32565b60208401519092506001600160401b03811115610f2e575f80fd5b8301601f81018513610f3e575f80fd5b80516001600160401b03811115610f5757610f57610e46565b610f6660208260051b01610ea5565b8082825260208201915060206101c08402850101925087831115610f88575f80fd5b6020840193505b828410156110d7578388036101c0811215610fa8575f80fd5b610fb0610e5a565b8551610fbb81610e32565b8152610140601f1983011215610fcf575f80fd5b610fd7610e82565b9150610fe560208701610ed5565b8252610ff360408701610ed5565b602083015261100460608701610ed5565b604083015261101560808701610ed5565b606083015261102660a08701610ed5565b608083015261103760c08701610ed5565b60a083015261104860e08701610ed5565b60c083015261105a6101008701610ed5565b60e083015261106c6101208701610ed5565b61010083015261107f6101408701610ed5565b6101208301528160208201526110986101608701610ed5565b60408201526110aa6101808701610ee4565b60608201526110bc6101a08701610ee4565b60808201528352506101c09390930192602090910190610f8f565b809450505050509250929050565b634e487b7160e01b5f52603260045260245ffd5b8181038181111561111857634e487b7160e01b5f52601160045260245ffd5b92915050565b6080516142f86111c25f395f81816105a801528181610aa501528181610b0601528181610b5f01528181610bc801528181610c3101528181610ca401528181610efc01528181610f6301528181611174015281816111d3015281816124130152818161248e015281816125ce0152818161276e015281816128e901528181612a2001528181612ba701528181612d5c01528181612dd90152612ef401526142f85ff3fe608060405260043610610183575f3560e01c8063715018a6116100d5578063c016738a1161007e578063dc98354e11610058578063dc98354e146105ca578063e1b4af69146105e9578063f2fde38b146106085761018a565b8063c016738a14610477578063c4e833ce14610496578063dc4c90d3146105975761018a565b8063b2494df3116100af578063b2494df3146103f5578063b47b2fb114610416578063b6a8b0fa146104585761018a565b8063715018a6146103925780638da5cb5b146103a65780639f063efc146103d65761018a565b8063334f7ac5116101375780635f1e8c1b116101115780635f1e8c1b146103205780636c2bbe7e146103345780636fe7e6eb146103735761018a565b8063334f7ac51461027a57806351c7094f14610298578063575e24b4146102d65761018a565b80631e21b9ed116101685780631e21b9ed1461020457806321d0ee7014610223578063259982e51461025b5761018a565b80630b1aba6f146101a25780631c5ebe2f146101c15761018a565b3661018a57005b6101a05f356001600160e01b0319165f36610627565b005b3480156101ad575f80fd5b506101a06101bc366004613354565b6106ea565b3480156101cc575f80fd5b506101ef6101db36600461350e565b60026020525f908152604090205460ff1681565b60405190151581526020015b60405180910390f35b34801561020f575f80fd5b506101a061021e366004613540565b6109e4565b34801561022e575f80fd5b5061024261023d3660046135c4565b610a99565b6040516001600160e01b031990911681526020016101fb565b348015610266575f80fd5b506102426102753660046135c4565b610afa565b348015610285575f80fd5b506001545b6040519081526020016101fb565b3480156102a3575f80fd5b506102c96102b2366004613540565b60036020525f908152604090206001015460ff1681565b6040516101fb9190613663565b3480156102e1575f80fd5b506102f56102f0366004613681565b610b51565b604080516001600160e01b03199094168452602084019290925262ffffff16908201526060016101fb565b34801561032b575f80fd5b5061028a601081565b34801561033f575f80fd5b5061035361034e3660046136db565b610bbb565b604080516001600160e01b031990931683526020830191909152016101fb565b34801561037e575f80fd5b5061024261038d366004613777565b610c25565b34801561039d575f80fd5b506101a0610c84565b3480156103b1575f80fd5b505f546001600160a01b03165b6040516001600160a01b0390911681526020016101fb565b3480156103e1575f80fd5b506103536103f03660046136db565b610c97565b348015610400575f80fd5b50610409610cf1565b6040516101fb91906137ce565b348015610421575f80fd5b506104356104303660046138ea565b610eef565b604080516001600160e01b03199093168352600f9190910b6020830152016101fb565b348015610463575f80fd5b5061024261047236600461396b565b610f57565b348015610482575f80fd5b506101a06104913660046139c5565b610fba565b3480156104a1575f80fd5b5061058a604080516101c0810182525f80825260208201819052918101829052606081018290526080810182905260a0810182905260c0810182905260e08101829052610100810182905261012081018290526101408101829052610160810182905261018081018290526101a081019190915250604080516101c081018252600180825260208201819052918101829052606081018290526080810182905260a0810182905260c0810182905260e08101829052610100810182905261012081018290526101408101829052610160810182905261018081018290526101a081019190915290565b6040516101fb9190613a5c565b3480156105a2575f80fd5b506103be7f000000000000000000000000000000000000000000000000000000000000000081565b3480156105d5575f80fd5b506102426105e4366004613b7d565b611168565b3480156105f4575f80fd5b5061024261060336600461396b565b6111c7565b348015610613575f80fd5b506101a061062236600461350e565b61121f565b6001600160e01b031983165f90815260036020526040812080549091819003610674576040516379043bbf60e11b81526001600160e01b0319861660048201526024015b60405180910390fd5b5f60018084015460ff169081111561068e5761068e61363b565b036106d8576106d3825f015f815481106106aa576106aa613bc4565b905f5260205f2090601091828204019190066002029054906101000a900461ffff16858561125c565b6106e3565b6106e38285856112f8565b5050505050565b6106f26113e4565b805160108111156107195760405163685ce4e560e01b81526004810182905260240161066b565b610721611410565b61072c60015f6131b1565b610734611466565b5f5b818110156109cf575f83828151811061075157610751613bc4565b602090810291909101015180519091506001600160a01b03811661078a57604051635c93ff2f60e11b81525f600482015260240161066b565b6001600160a01b0381165f9081526002602052604090205460ff16156107ce57604051630da3f63f60e41b81526001600160a01b038216600482015260240161066b565b5f6107dc8360200151611685565b905060016040518060a00160405280855f01516001600160a01b031681526020018361ffff168152602001856040015115158152602001856060015163ffffffff168152602001856080015163ffffffff16815250908060018154018082558091505060019003905f5260205f20015f909190919091505f820151815f015f6101000a8154816001600160a01b0302191690836001600160a01b031602179055506020820151815f0160146101000a81548161ffff021916908361ffff1602179055506040820151815f0160166101000a81548160ff0219169083151502179055506060820151815f0160176101000a81548163ffffffff021916908363ffffffff1602179055506080820151815f01601b6101000a81548163ffffffff021916908363ffffffff1602179055505050600160025f846001600160a01b03166001600160a01b031681526020019081526020015f205f6101000a81548160ff021916908315150217905550816001600160a01b03167f19a589ad25e4dcafa1eea7536ddcc5357b57d26464daa25393e17503f65d9092846060015183866040015187608001516040516109b9949392919063ffffffff948516815261ffff9390931660208401529015156040830152909116606082015260800190565b60405180910390a2836001019350505050610736565b506109d8611719565b6109e06119fe565b5050565b6109ec6113e4565b6001600160e01b031981165f9081526003602052604081208054909103610a32576040516379043bbf60e11b81526001600160e01b03198316600482015260240161066b565b6001600160e01b031982165f90815260036020526040812090610a5582826131cc565b50600101805460ff191690556040516001600160e01b03198316907f19872946f869054091c68a13e3cf48e303d00183a3c0a0e94153176f1ad49351905f90a25050565b5f336001600160a01b037f00000000000000000000000000000000000000000000000000000000000000001614610ae35760405163570c108560e11b815260040160405180910390fd5b610af08686868686611f76565b9695505050505050565b5f336001600160a01b037f00000000000000000000000000000000000000000000000000000000000000001614610b445760405163570c108560e11b815260040160405180910390fd5b610af08686868686611fa5565b5f8080336001600160a01b037f00000000000000000000000000000000000000000000000000000000000000001614610b9d5760405163570c108560e11b815260040160405180910390fd5b610baa8888888888611fd4565b925092509250955095509592505050565b5f80336001600160a01b037f00000000000000000000000000000000000000000000000000000000000000001614610c065760405163570c108560e11b815260040160405180910390fd5b610c158989898989898961200c565b9150915097509795505050505050565b5f336001600160a01b037f00000000000000000000000000000000000000000000000000000000000000001614610c6f5760405163570c108560e11b815260040160405180910390fd5b610c7b85858585612043565b95945050505050565b610c8c6113e4565b610c955f612061565b565b5f80336001600160a01b037f00000000000000000000000000000000000000000000000000000000000000001614610ce25760405163570c108560e11b815260040160405180910390fd5b610c15898989898989896120bd565b6001546060908067ffffffffffffffff811115610d1057610d1061323d565b604051908082528060200260200182016040528015610dbc57816020015b610da96040805160a080820183525f8083528351610140810185528181526020818101839052948101829052606081018290526080810182905291820181905260c0820181905260e082018190526101008201819052610120820152909182019081525f602082018190526040820181905260609091015290565b815260200190600190039081610d2e5790505b5091505f5b81811015610eea575f60018281548110610ddd57610ddd613bc4565b5f9182526020918290206040805160a080820183529390920180546001600160a01b0381168452825161014081018452600160a01b909104600181161515825260028116151582880152600481161515828501526008811615156060830152601081161515608080840191909152818816151596830196909652928316151560c0820152938216151560e085015261010080831615159085015261020090911615156101208401529350918201908152825460ff600160b01b8204161515602083015263ffffffff600160b81b820481166040840152600160d81b909104166060909101528451859084908110610ed657610ed6613bc4565b602090810291909101015250600101610dc1565b505090565b5f80336001600160a01b037f00000000000000000000000000000000000000000000000000000000000000001614610f3a5760405163570c108560e11b815260040160405180910390fd5b610f488888888888886120f4565b91509150965096945050505050565b5f336001600160a01b037f00000000000000000000000000000000000000000000000000000000000000001614610fa15760405163570c108560e11b815260040160405180910390fd5b610faf878787878787612129565b979650505050505050565b610fc26113e4565b815f819003610fe45760405163ea60ab1d60e01b815260040160405180910390fd5b6001600160e01b031985165f908152600360205260408120906110089082906131cc565b60018082018054859260ff199091169083818111156110295761102961363b565b02179055505f8267ffffffffffffffff8111156110485761104861323d565b604051908082528060200260200182016040528015611071578160200160208202803683370190505b5090505f5b8381101561111a575f87878381811061109157611091613bc4565b90506020020160208101906110a69190613bd8565b90506110b18161215a565b83546001810185555f8581526020902060108204018054600f9092166002026101000a61ffff8181021990931692841602919091179055825181908490849081106110fe576110fe613bc4565b61ffff9092166020928302919091019091015250600101611076565b50866001600160e01b0319167f91c15015eb82e3a55632a80c018db5b7e30f5356f22294ee36c85f8806a8533c8286604051611157929190613bf9565b60405180910390a250505050505050565b5f336001600160a01b037f000000000000000000000000000000000000000000000000000000000000000016146111b25760405163570c108560e11b815260040160405180910390fd5b6111bd848484612186565b90505b9392505050565b5f336001600160a01b037f000000000000000000000000000000000000000000000000000000000000000016146112115760405163570c108560e11b815260040160405180910390fd5b610faf8787878787876121a2565b6112276113e4565b6001600160a01b03811661125057604051631e4fbdf760e01b81525f600482015260240161066b565b61125981612061565b50565b6112658361215a565b5f60018461ffff168154811061127d5761127d613bc4565b905f5260205f200190505f83838080601f0160208091040260200160405190810160405280939291908181526020018383808284375f9201829052509394508392506112cd9150859050846121d3565b91509150816112df576112df816122c8565b8051156112ef576112ef816122dc565b50505050505050565b82546060905f5b818110156113d3575f86828154811061131a5761131a613bc4565b905f5260205f2090601091828204019190066002029054906101000a900461ffff1690506113478161215a565b5f60018261ffff168154811061135f5761135f613bc4565b905f5260205f200190505f87878080601f0160208091040260200160405190810160405280939291908181526020018383808284375f9201829052509394508392506113af9150859050846121d3565b91509150816113c1576113c1816122c8565b965050600190930192506112ff915050565b508151156106e3576106e3826122dc565b5f546001600160a01b03163314610c955760405163118cdaa760e01b815233600482015260240161066b565b6001545f5b818110156109e05760025f6001838154811061143357611433613bc4565b5f9182526020808320909101546001600160a01b031683528201929092526040019020805460ff19169055600101611415565b60015f908152600460205261149c907fabd6e7cb50984ff9c2f3e18a2660c3353dadf4e3291deeb275dae2cd1e44fe05906131cc565b60025f90815260046020526114d2907f91da3fd0782e51c6b3986e9e672fd566868e71f3dbc2d6c2cd6fbb3e361af2a7906131cc565b60045f818152602091909152611509907f1a1e6821cde7d0159c0d293177871e09677b4e42307c7db3ba94f8648a5a050f906131cc565b60085f908152600460205261153f907f2645749a946633740611cfc8178319f0958659d6922e4bf7e3a08b44789f53a4906131cc565b60105f9081526004602052611575907f4a597304b2df0a7a7b428b3c24c35ba6373aabebf9972387f5610f74a01b21bd906131cc565b60205f81815260049091526115ab907f96648185182926add89ee4d5c354d3f3e8383a8966d4d875bd8575e13aa27a96906131cc565b60405f90815260046020526115e1907fb93c443712bfe14e7a639981e333273aa262f031202de6955780cac88aee6001906131cc565b60805f9081526004602052611617907fd21de5f10f7da2cc11d7285aa1870cc63fc64f1607ff0e823e4786ac9df506e1906131cc565b6101005f908152600460205261164e907f02e0252f410d1177d439f247a3ca129ba57305188ea1d6c26baaf9775489938c906131cc565b6102005f9081526004602052610c95907f3cb8dbdb71abce785b0d3ada500497411f9a35029bc9f0128fe99dbe40b831ed906131cc565b80515f9015611692576001175b8160200151156116a0576002175b8160400151156116ae576004175b8160600151156116bc576008175b8160800151156116ca576010175b8160a00151156116d8576020175b8160c00151156116e6576040175b8160e00151156116f4576080175b8161010001511561170457610100175b8161012001511561171457610200175b919050565b60018054905b818110156109e0575f6001828154811061173b5761173b613bc4565b5f9182526020918290206040805160a08101825292909101546001600160a01b038116835261ffff600160a01b8204169383019390935260ff600160b01b84041615159082015263ffffffff600160b81b830481166060830152600160d81b90920490911660808201529050815b5f811180156117f2575060016117bf8183613c5e565b815481106117cf576117cf613bc4565b5f91825260209091200154606083015163ffffffff600160b81b90920482169116105b156119315760016118038183613c5e565b8154811061181357611813613bc4565b905f5260205f20016001828154811061182e5761182e613bc4565b5f918252602090912082549101805473ffffffffffffffffffffffffffffffffffffffff1981166001600160a01b039093169283178255835461ffff600160a01b91829004160275ffffffffffffffffffffffffffffffffffffffffffff1990911690921791909117808255825460ff600160b01b91829004161515027fffffffffffffffffff00ffffffffffffffffffffffffffffffffffffffffffff821681178355835463ffffffff600160b81b91829004811690910263ffffffff60b81b1990921664ffffffffff60b01b1990931692909217178083559254600160d81b908190049091160263ffffffff60d81b199092169190911790555f19016117a9565b816001828154811061194557611945613bc4565b5f91825260209182902083519101805492840151604085015160608601516080909601516001600160a01b0390941675ffffffffffffffffffffffffffffffffffffffffffff1990951694909417600160a01b61ffff909216919091021764ffffffffff60b01b1916600160b01b9315159390930263ffffffff60b81b191692909217600160b81b63ffffffff948516021763ffffffff60d81b1916600160d81b9390911692909202919091179055505060010161171f565b6001545f5b818110156109e0575f60018281548110611a1f57611a1f613bc4565b5f91825260209091200154600160a01b900461ffff81169150829060011615611abe5760046020527fabd6e7cb50984ff9c2f3e18a2660c3353dadf4e3291deeb275dae2cd1e44fe0580546001810182555f919091527f210afe6ebef982fa193bb4e17f9f236cdf09af7788627b5d54d9e3e4b100021b60108204018054600f9092166002026101000a61ffff81810219909316928416029190911790555b6002821615611b425760046020527f91da3fd0782e51c6b3986e9e672fd566868e71f3dbc2d6c2cd6fbb3e361af2a780546001810182555f91909152601081047fff2ead72d53401d823f4de3290714b95c588de2c574133f57728a2d3d3763d3a01805461ffff848116600f9094166002026101000a938402930219169190911790555b6004821615611bc75760046020527f1a1e6821cde7d0159c0d293177871e09677b4e42307c7db3ba94f8648a5a050f80546001810182555f919091527fae1f6f36060f166f063fb01d63adab80297f56b5a444cab19384c535141dbd8b60108204018054600f9092166002026101000a61ffff81810219909316928416029190911790555b6008821615611c4c5760046020527f2645749a946633740611cfc8178319f0958659d6922e4bf7e3a08b44789f53a480546001810182555f919091527fcc6aa2a08d9e8793dee28db7627f0ec74b54801bc30f440b4f9a630a5949feec60108204018054600f9092166002026101000a61ffff81810219909316928416029190911790555b6010821615611cd15760046020527f4a597304b2df0a7a7b428b3c24c35ba6373aabebf9972387f5610f74a01b21bd80546001810182555f919091527fd8c6832197dc0c3930239699461a8f431057c25fb4a30f0cea401fd64287002e60108204018054600f9092166002026101000a61ffff81810219909316928416029190911790555b6020821615611d565760046020527f96648185182926add89ee4d5c354d3f3e8383a8966d4d875bd8575e13aa27a9680546001810182555f919091527fb3445e761574b6336210950b4f5b43da25caa8da3816f667f2420b8f97e90ffb60108204018054600f9092166002026101000a61ffff81810219909316928416029190911790555b6040821615611ddb5760046020527fb93c443712bfe14e7a639981e333273aa262f031202de6955780cac88aee600180546001810182555f919091527f4409212596eb52df8e35e10419c133c0a2db5d8f19a24ecc7e4ee77ab96157eb60108204018054600f9092166002026101000a61ffff81810219909316928416029190911790555b6080821615611e605760046020527fd21de5f10f7da2cc11d7285aa1870cc63fc64f1607ff0e823e4786ac9df506e180546001810182555f919091527f9fa1545be3672894e99c57981650092e85cec3204230a01ecd7ed80942acded060108204018054600f9092166002026101000a61ffff81810219909316928416029190911790555b610100821615611ee65760046020527f02e0252f410d1177d439f247a3ca129ba57305188ea1d6c26baaf9775489938c80546001810182555f919091527ffc7e57cc06035285e5e71f822152177096044123176cfd5ed4aeb6022387011a60108204018054600f9092166002026101000a61ffff81810219909316928416029190911790555b610200821615611f6c5760046020527f3cb8dbdb71abce785b0d3ada500497411f9a35029bc9f0128fe99dbe40b831ed80546001810182555f919091527f0972b310bff4babc0b46014b4f1e11e60b6ec8d3e44e4fb322fa8e576f0138cf60108204018054600f9092166002026101000a61ffff81810219909316928416029190911790555b5050600101611a03565b5f80611f8284846122e4565b9050611f92600488888885612347565b5063021d0ee760e41b9695505050505050565b5f80611fb184846122e4565b9050611fc1600288888885612347565b5063259982e560e01b9695505050505050565b5f805f80611fe286866122e4565b90505f80611ff28b8b8b8661251a565b6315d7892d60e21b9d919c509a5098505050505050505050565b5f805f61201985856122e4565b90505f61202a8b8b8b8b8b876126bd565b633615df3f60e11b9c909b509950505050505050505050565b5f61205085858585612850565b50636fe7e6eb60e01b949350505050565b5f80546001600160a01b0383811673ffffffffffffffffffffffffffffffffffffffff19831681178455604051919092169283917f8be0079c531659141344cd1fd0a4f28419497f9722a3daafe3b4186f6b6457e09190a35050565b5f805f6120ca85856122e4565b90505f6120db8b8b8b8b8b8761296f565b6327c18fbf60e21b9c909b509950505050505050505050565b5f805f61210185856122e4565b90505f6121118a8a8a8a86612af5565b63b47b2fb160e01b9b909a5098505050505050505050565b5f8061213584846122e4565b905061214660088989898986612c95565b50635b54587d60e11b979650505050505050565b60015461ffff8216106112595760405163d3b3019d60e01b815261ffff8216600482015260240161066b565b5f612192848484612e5b565b50636e4c1aa760e11b9392505050565b5f806121ae84846122e4565b90506121bf60098989898986612c95565b5063e1b4af6960e01b979650505050505050565b81545f906060906001600160a01b03811690600160d81b900463ffffffff1680840361225a57816001600160a01b0316856040516122119190613c71565b5f604051808303815f865af19150503d805f811461224a576040519150601f19603f3d011682016040523d82523d5f602084013e61224f565b606091505b5090945092506122bf565b816001600160a01b03168163ffffffff16866040516122799190613c71565b5f604051808303815f8787f1925050503d805f81146122b3576040519150601f19603f3d011682016040523d82523d5f602084013e6122b8565b606091505b5090945092505b50509250929050565b80515f036122d4575f80fd5b805160208201fd5b805160208201f35b60605f82900361233257604080515f808252602082019092529061232a565b604080518082019091525f8152606060208201528152602001906001900390816123035790505b509050612341565b61233e82840184613c87565b90505b92915050565b5f61235186612f7f565b61ffff81165f90815260046020526040812080549293509190600289600981111561237e5761237e61363b565b1490505f5b8281101561250e575f60018583815481106123a0576123a0613bc4565b905f5260205f2090601091828204019190066002029054906101000a900461ffff1661ffff16815481106123d6576123d6613bc4565b5f918252602082200180549092506123f7906001600160a01b031689612fa0565b90506060841561247c5760405163ad66ca1f60e01b90612443907f0000000000000000000000000000000000000000000000000000000000000000908f908f908f908890602401613edd565b60408051601f198184030181529190526020810180516001600160e01b03166001600160e01b03199093169290921790915290506124f3565b604051630329e64760e11b906124be907f0000000000000000000000000000000000000000000000000000000000000000908f908f908f908890602401613edd565b60408051601f198184030181529190526020810180516001600160e01b03166001600160e01b03199093169290921790915290505b6124fe838e8361302d565b5050836001019350505050612383565b50505050505050505050565b60405f90815260046020527fb93c443712bfe14e7a639981e333273aa262f031202de6955780cac88aee60018054829190825b818110156126b1575f600184838154811061256a5761256a613bc4565b905f5260205f2090601091828204019190066002029054906101000a900461ffff1661ffff16815481106125a0576125a0613bc4565b5f918252602082200180549092506125c1906001600160a01b031689612fa0565b90505f635446fe9560e01b7f00000000000000000000000000000000000000000000000000000000000000008d8d8d86604051602401612605959493929190613f65565b60408051601f198184030181529190526020810180516001600160e01b03166001600160e01b03199093169290921790915290505f806126478560068561302d565b9150915081801561265857505f8151115b156126a1575f818060200190518101906126729190613fb2565b80519091501561268d5761268a8b8260200151613057565b9a505b80604001511561269f57806060015199505b505b856001019550505050505061254d565b50505094509492505050565b60205f81815260049091527f96648185182926add89ee4d5c354d3f3e8383a8966d4d875bd8575e13aa27a968054825b81811015612843575f600184838154811061270a5761270a613bc4565b905f5260205f2090601091828204019190066002029054906101000a900461ffff1661ffff168154811061274057612740613bc4565b5f91825260208220018054909250612761906001600160a01b031688612fa0565b90505f63cbd9109660e01b7f00000000000000000000000000000000000000000000000000000000000000008e8e8e8e8e886040516024016127a9979695949392919061402e565b60408051601f198184030181529190526020810180516001600160e01b03166001600160e01b03199093169290921790915290505f806127eb8560058561302d565b915091508180156127fc57505f8151115b15612833575f818060200190518101906128169190614089565b8051909150156128315761282e8a82602001516130e9565b99505b505b85600101955050505050506126ed565b5050509695505050505050565b60025f90815260046020527f91da3fd0782e51c6b3986e9e672fd566868e71f3dbc2d6c2cd6fbb3e361af2a7805490915b818110156112ef575f600184838154811061289e5761289e613bc4565b905f5260205f2090601091828204019190066002029054906101000a900461ffff1661ffff16815481106128d4576128d4613bc4565b905f5260205f200190505f63249bca0a60e01b7f00000000000000000000000000000000000000000000000000000000000000008a8a8a8a6040516024016129209594939291906140c3565b60408051601f198184030181529190526020810180516001600160e01b03166001600160e01b03199093169290921790915290506129608260018361302d565b50508260010192505050612881565b60085f90815260046020527f2645749a946633740611cfc8178319f0958659d6922e4bf7e3a08b44789f53a48054825b81811015612843575f60018483815481106129bc576129bc613bc4565b905f5260205f2090601091828204019190066002029054906101000a900461ffff1661ffff16815481106129f2576129f2613bc4565b5f91825260208220018054909250612a13906001600160a01b031688612fa0565b90505f6342a29c2260e01b7f00000000000000000000000000000000000000000000000000000000000000008e8e8e8e8e88604051602401612a5b979695949392919061402e565b60408051601f198184030181529190526020810180516001600160e01b03166001600160e01b03199093169290921790915290505f80612a9d8560038561302d565b91509150818015612aae57505f8151115b15612ae5575f81806020019051810190612ac89190614089565b805190915015612ae357612ae08a82602001516130e9565b99505b505b856001019550505050505061299f565b60805f90815260046020527fd21de5f10f7da2cc11d7285aa1870cc63fc64f1607ff0e823e4786ac9df506e1805482805b82811015612c7e575f6001858381548110612b4357612b43613bc4565b905f5260205f2090601091828204019190066002029054906101000a900461ffff1661ffff1681548110612b7957612b79613bc4565b5f91825260208220018054909250612b9a906001600160a01b031689612fa0565b90505f634558d10060e01b7f00000000000000000000000000000000000000000000000000000000000000008e8e8e8e87604051602401612be09695949392919061410c565b60408051601f198184030181529190526020810180516001600160e01b03166001600160e01b03199093169290921790915290505f80612c228560078561302d565b91509150818015612c3357505f8151115b15612c6e575f81806020019051810190612c4d919061416c565b805190915015612c6c576020810151612c6990600f0b896141b3565b97505b505b8560010195505050505050612b26565b50612c8881613106565b9998505050505050505050565b5f612c9f87612f7f565b61ffff81165f908152600460205260408120805492935091905b8181101561250e575f6001848381548110612cd657612cd6613bc4565b905f5260205f2090601091828204019190066002029054906101000a900461ffff1661ffff1681548110612d0c57612d0c613bc4565b5f91825260208220018054909250612d2d906001600160a01b031688612fa0565b9050606060088d6009811115612d4557612d4561363b565b03612dc75760405163cab0dbeb60e01b90612d8e907f0000000000000000000000000000000000000000000000000000000000000000908f908f908f908f9089906024016141da565b60408051601f198184030181529190526020810180516001600160e01b03166001600160e01b0319909316929092179091529050612e40565b60405163933efaf360e01b90612e0b907f0000000000000000000000000000000000000000000000000000000000000000908f908f908f908f9089906024016141da565b60408051601f198184030181529190526020810180516001600160e01b03166001600160e01b03199093169290921790915290505b612e4b838e8361302d565b5050836001019350505050612cb9565b60015f90815260046020527fabd6e7cb50984ff9c2f3e18a2660c3353dadf4e3291deeb275dae2cd1e44fe05805490915b81811015612f77575f6001848381548110612ea957612ea9613bc4565b905f5260205f2090601091828204019190066002029054906101000a900461ffff1661ffff1681548110612edf57612edf613bc4565b905f5260205f200190505f63b9d7310d60e01b7f0000000000000000000000000000000000000000000000000000000000000000898989604051602401612f299493929190614227565b60408051601f198184030181529190526020810180516001600160e01b03166001600160e01b0319909316929092179091529050612f68825f8361302d565b50508260010192505050612e8c565b505050505050565b5f816009811115612f9257612f9261363b565b60ff166001901b9050919050565b8051606090835f5b8281101561301557816001600160a01b0316858281518110612fcc57612fcc613bc4565b60200260200101515f01516001600160a01b03160361300d57848181518110612ff757612ff7613bc4565b6020026020010151602001519350505050612341565b600101612fa8565b505060408051602081019091525f8152949350505050565b5f606061303a85846121d3565b90925090508161304f5761304f858583613122565b935093915050565b5f828281830361306b578392505050612341565b805f0361307c578492505050612341565b5f6130878560801d90565b600f0b6130948760801d90565b600f0b0190505f6130a586600f0b90565b600f0b6130b288600f0b90565b600f0b019050610faf6130c483613106565b6130cd83613106565b6fffffffffffffffffffffffffffffffff1660809190911b1790565b5f608082811d9084901d01600f83810b9085900b01610c7b6130c4835b80600f81900b8114611714576117146393dafdf160e01b6131a9565b8254600160b01b900460ff161561315c5782546040516398fe847f60e01b815261066b916001600160a01b03169084908490600401614275565b82546040516001600160a01b03909116907f197a1317df6bddbd3fd5704278ed8cd9f2e1d7d74a86aec9943495ada081fce19061319c90859085906142a3565b60405180910390a2505050565b805f5260045ffd5b5080545f8255905f5260205f209081019061125991906131ee565b5080545f8255600f0160109004905f5260205f20908101906112599190613229565b5b808211156132255780547fff000000000000000000000000000000000000000000000000000000000000001681556001016131ef565b5090565b5b80821115613225575f815560010161322a565b634e487b7160e01b5f52604160045260245ffd5b60405160a0810167ffffffffffffffff811182821017156132745761327461323d565b60405290565b604051610140810167ffffffffffffffff811182821017156132745761327461323d565b6040805190810167ffffffffffffffff811182821017156132745761327461323d565b604051601f8201601f1916810167ffffffffffffffff811182821017156132ea576132ea61323d565b604052919050565b5f67ffffffffffffffff82111561330b5761330b61323d565b5060051b60200190565b6001600160a01b0381168114611259575f80fd5b8015158114611259575f80fd5b803561171481613329565b803563ffffffff81168114611714575f80fd5b5f60208284031215613364575f80fd5b813567ffffffffffffffff81111561337a575f80fd5b8201601f8101841361338a575f80fd5b803561339d613398826132f2565b6132c1565b8082825260208201915060206101c084028501019250868311156133bf575f80fd5b6020840193505b82841015610af0578387036101c08112156133df575f80fd5b6133e7613251565b85356133f281613315565b8152610140601f1983011215613406575f80fd5b61340e61327a565b915061341c60208701613336565b825261342a60408701613336565b602083015261343b60608701613336565b604083015261344c60808701613336565b606083015261345d60a08701613336565b608083015261346e60c08701613336565b60a083015261347f60e08701613336565b60c08301526134916101008701613336565b60e08301526134a36101208701613336565b6101008301526134b66101408701613336565b6101208301528160208201526134cf6101608701613336565b60408201526134e16101808701613341565b60608201526134f36101a08701613341565b60808201528352506101c093909301926020909101906133c6565b5f6020828403121561351e575f80fd5b81356111c081613315565b80356001600160e01b031981168114611714575f80fd5b5f60208284031215613550575f80fd5b61233e82613529565b5f60a08284031215613569575f80fd5b50919050565b5f60808284031215613569575f80fd5b5f8083601f84011261358f575f80fd5b50813567ffffffffffffffff8111156135a6575f80fd5b6020830191508360208285010111156135bd575f80fd5b9250929050565b5f805f805f61016086880312156135d9575f80fd5b85356135e481613315565b94506135f38760208801613559565b93506136028760c0880161356f565b925061014086013567ffffffffffffffff81111561361e575f80fd5b61362a8882890161357f565b969995985093965092949392505050565b634e487b7160e01b5f52602160045260245ffd5b6002811061365f5761365f61363b565b9052565b60208101612341828461364f565b5f60608284031215613569575f80fd5b5f805f805f6101408688031215613696575f80fd5b85356136a181613315565b94506136b08760208801613559565b93506136bf8760c08801613671565b925061012086013567ffffffffffffffff81111561361e575f80fd5b5f805f805f805f6101a0888a0312156136f2575f80fd5b87356136fd81613315565b965061370c8960208a01613559565b955061371b8960c08a0161356f565b94506101408801359350610160880135925061018088013567ffffffffffffffff811115613747575f80fd5b6137538a828b0161357f565b989b979a50959850939692959293505050565b8035600281900b8114611714575f80fd5b5f805f80610100858703121561378b575f80fd5b843561379681613315565b93506137a58660208701613559565b925060c08501356137b581613315565b91506137c360e08601613766565b905092959194509250565b602080825282518282018190525f918401906040840190835b818110156138df5783516001600160a01b038151168452602081015161381260208601825115159052565b602081015180151560408701525060408101518015156060870152506060810151801515608087015250608081015180151560a08701525060a081015180151560c08701525060c081015180151560e08701525060e08101518015156101008701525061010081015180151561012087015250610120015180151561014086015250604081015180151561016086015250606081015163ffffffff8116610180860152506080015163ffffffff81166101a085015250602093909301926101c092909201916001016137e7565b509095945050505050565b5f805f805f806101608789031215613900575f80fd5b863561390b81613315565b955061391a8860208901613559565b94506139298860c08901613671565b9350610120870135925061014087013567ffffffffffffffff81111561394d575f80fd5b61395989828a0161357f565b979a9699509497509295939492505050565b5f805f805f806101208789031215613981575f80fd5b863561398c81613315565b955061399b8860208901613559565b945060c0870135935060e0870135925061010087013567ffffffffffffffff81111561394d575f80fd5b5f805f80606085870312156139d8575f80fd5b6139e185613529565b9350602085013567ffffffffffffffff8111156139fc575f80fd5b8501601f81018713613a0c575f80fd5b803567ffffffffffffffff811115613a22575f80fd5b8760208260051b8401011115613a36575f80fd5b60209190910193509150604085013560028110613a51575f80fd5b939692955090935050565b8151151581526101c081016020830151613a7a602084018215159052565b506040830151613a8e604084018215159052565b506060830151613aa2606084018215159052565b506080830151613ab6608084018215159052565b5060a0830151613aca60a084018215159052565b5060c0830151613ade60c084018215159052565b5060e0830151613af260e084018215159052565b50610100830151613b0861010084018215159052565b50610120830151613b1e61012084018215159052565b50610140830151613b3461014084018215159052565b50610160830151613b4a61016084018215159052565b50610180830151613b6061018084018215159052565b506101a0830151613b766101a084018215159052565b5092915050565b5f805f60e08486031215613b8f575f80fd5b8335613b9a81613315565b9250613ba98560208601613559565b915060c0840135613bb981613315565b809150509250925092565b634e487b7160e01b5f52603260045260245ffd5b5f60208284031215613be8575f80fd5b813561ffff811681146111c0575f80fd5b604080825283519082018190525f9060208501906060840190835b81811015613c3657835161ffff16835260209384019390920191600101613c14565b505080925050506111c0602083018461364f565b634e487b7160e01b5f52601160045260245ffd5b8181038181111561234157612341613c4a565b5f82518060208501845e5f920191825250919050565b5f60208284031215613c97575f80fd5b813567ffffffffffffffff811115613cad575f80fd5b8201601f81018413613cbd575f80fd5b8035613ccb613398826132f2565b8082825260208201915060208360051b850101925086831115613cec575f80fd5b602084015b83811015613ddd57803567ffffffffffffffff811115613d0f575f80fd5b85016040818a03601f19011215613d24575f80fd5b613d2c61329e565b6020820135613d3a81613315565b8152604082013567ffffffffffffffff811115613d55575f80fd5b60208184010192505089601f830112613d6c575f80fd5b813567ffffffffffffffff811115613d8657613d8661323d565b613d99601f8201601f19166020016132c1565b8181528b6020838601011115613dad575f80fd5b816020850160208301375f6020838301015280602084015250508085525050602083019250602081019050613cf1565b509695505050505050565b62ffffff81168114611259575f80fd5b8035613e0381613315565b6001600160a01b031682526020810135613e1c81613315565b6001600160a01b031660208301526040810135613e3881613de8565b62ffffff166040830152613e4e60608201613766565b60020b60608301526080810135613e6481613315565b6001600160a01b0381166080840152505050565b613e8181613766565b60020b8252613e9260208201613766565b60020b602083015260408181013590830152606090810135910152565b5f81518084528060208401602086015e5f602082860101526020601f19601f83011685010191505092915050565b6001600160a01b03861681526001600160a01b0385166020820152613f056040820185613df8565b613f1260e0820184613e78565b6101806101608201525f610faf610180830184613eaf565b8035613f3581613329565b15158252602081810135908301526040810135613f5181613315565b6001600160a01b0381166040840152505050565b6001600160a01b03861681526001600160a01b0385166020820152613f8d6040820185613df8565b613f9a60e0820184613f2a565b6101606101408201525f610faf610160830184613eaf565b5f6080828403128015613fc3575f80fd5b506040516080810167ffffffffffffffff81118282101715613fe757613fe761323d565b6040528251613ff581613329565b815260208381015190820152604083015161400f81613329565b6040820152606083015161402281613de8565b60608201529392505050565b6001600160a01b03881681526001600160a01b03871660208201526140566040820187613df8565b61406360e0820186613e78565b83610160820152826101808201526101c06101a08201525f612c886101c0830184613eaf565b5f604082840312801561409a575f80fd5b506140a361329e565b82516140ae81613329565b81526020928301519281019290925250919050565b6001600160a01b0386811682528516602082015261012081016140e96040830186613df8565b6001600160a01b03841660e08301528260020b6101008301529695505050505050565b6001600160a01b03871681526001600160a01b03861660208201526141346040820186613df8565b61414160e0820185613f2a565b826101408201526101806101608201525f614160610180830184613eaf565b98975050505050505050565b5f604082840312801561417d575f80fd5b5061418661329e565b825161419181613329565b81526020830151600f81900b81146141a7575f80fd5b60208201529392505050565b8082018281125f8312801582168215821617156141d2576141d2613c4a565b505092915050565b6001600160a01b03871681526001600160a01b03861660208201526142026040820186613df8565b8360e0820152826101008201526101406101208201525f614160610140830184613eaf565b6001600160a01b03858116825284166020820152610100810161424d6040830185613df8565b6001600160a01b03831660e083015295945050505050565b600a811061365f5761365f61363b565b6001600160a01b038416815261428e6020820184614265565b606060408201525f610c7b6060830184613eaf565b6142ad8184614265565b604060208201525f6111bd6040830184613eaf56fea2646970667358221220e64c2640f6574afeb0f3ede331b0909eb7372f97473be06f59feab80b43bb0c964736f6c634300081a00333cb8dbdb71abce785b0d3ada500497411f9a35029bc9f0128fe99dbe40b831edabd6e7cb50984ff9c2f3e18a2660c3353dadf4e3291deeb275dae2cd1e44fe05b93c443712bfe14e7a639981e333273aa262f031202de6955780cac88aee6001d21de5f10f7da2cc11d7285aa1870cc63fc64f1607ff0e823e4786ac9df506e11a1e6821cde7d0159c0d293177871e09677b4e42307c7db3ba94f8648a5a050f96648185182926add89ee4d5c354d3f3e8383a8966d4d875bd8575e13aa27a962645749a946633740611cfc8178319f0958659d6922e4bf7e3a08b44789f53a44a597304b2df0a7a7b428b3c24c35ba6373aabebf9972387f5610f74a01b21bd02e0252f410d1177d439f247a3ca129ba57305188ea1d6c26baaf9775489938c91da3fd0782e51c6b3986e9e672fd566868e71f3dbc2d6c2cd6fbb3e361af2a7","linkReferences":{}},"methodIdentifiers":{"MAX_MODULES()":"5f1e8c1b","afterAddLiquidity(address,(address,address,uint24,int24,address),(int24,int24,int256,bytes32),int256,int256,bytes)":"9f063efc","afterDonate(address,(address,address,uint24,int24,address),uint256,uint256,bytes)":"e1b4af69","afterInitialize(address,(address,address,uint24,int24,address),uint160,int24)":"6fe7e6eb","afterRemoveLiquidity(address,(address,address,uint24,int24,address),(int24,int24,int256,bytes32),int256,int256,bytes)":"6c2bbe7e","afterSwap(address,(address,address,uint24,int24,address),(bool,int256,uint160),int256,bytes)":"b47b2fb1","beforeAddLiquidity(address,(address,address,uint24,int24,address),(int24,int24,int256,bytes32),bytes)":"259982e5","beforeDonate(address,(address,address,uint24,int24,address),uint256,uint256,bytes)":"b6a8b0fa","beforeInitialize(address,(address,address,uint24,int24,address),uint160)":"dc98354e","beforeRemoveLiquidity(address,(address,address,uint24,int24,address),(int24,int24,int256,bytes32),bytes)":"21d0ee70","beforeSwap(address,(address,address,uint24,int24,address),(bool,int256,uint160),bytes)":"575e24b4","clearRoute(bytes4)":"1e21b9ed","getHookPermissions()":"c4e833ce","getModules()":"b2494df3","isModuleRegistered(address)":"1c5ebe2f","moduleCount()":"334f7ac5","owner()":"8da5cb5b","poolManager()":"dc4c90d3","renounceOwnership()":"715018a6","routes(bytes4)":"51c7094f","setModules((address,(bool,bool,bool,bool,bool,bool,bool,bool,bool,bool),bool,uint32,uint32)[])":"0b1aba6f","setRoute(bytes4,uint16[],uint8)":"c016738a","transferOwnership(address)":"f2fde38b"},"id":42}