{"abi":[{"type":"constructor","inputs":[{"name":"aggregator_","type":"address","internalType":"address"}],"stateMutability":"nonpayable"},{"type":"function","name":"AGGREGATOR","inputs":[],"outputs":[{"name":"","type":"address","internalType":"address"}],"stateMutability":"view"},{"type":"function","name":"afterAddLiquidity","inputs":[{"name":"","type":"address","internalType":"contract IPoolManager"},{"name":"","type":"address","internalType":"address"},{"name":"","type":"tuple","internalType":"struct PoolKey","components":[{"name":"currency0","type":"address","internalType":"Currency"},{"name":"currency1","type":"address","internalType":"Currency"},{"name":"fee","type":"uint24","internalType":"uint24"},{"name":"tickSpacing","type":"int24","internalType":"int24"},{"name":"hooks","type":"address","internalType":"contract IHooks"}]},{"name":"","type":"tuple","internalType":"struct ModifyLiquidityParams","components":[{"name":"tickLower","type":"int24","internalType":"int24"},{"name":"tickUpper","type":"int24","internalType":"int24"},{"name":"liquidityDelta","type":"int256","internalType":"int256"},{"name":"salt","type":"bytes32","internalType":"bytes32"}]},{"name":"","type":"int256","internalType":"BalanceDelta"},{"name":"","type":"int256","internalType":"BalanceDelta"},{"name":"","type":"bytes","internalType":"bytes"}],"outputs":[{"name":"","type":"tuple","internalType":"struct IMODLModule.BalanceDeltaResult","components":[{"name":"hasDelta","type":"bool","internalType":"bool"},{"name":"delta","type":"int256","internalType":"BalanceDelta"}]}],"stateMutability":"nonpayable"},{"type":"function","name":"afterDonate","inputs":[{"name":"","type":"address","internalType":"contract IPoolManager"},{"name":"sender","type":"address","internalType":"address"},{"name":"","type":"tuple","internalType":"struct PoolKey","components":[{"name":"currency0","type":"address","internalType":"Currency"},{"name":"currency1","type":"address","internalType":"Currency"},{"name":"fee","type":"uint24","internalType":"uint24"},{"name":"tickSpacing","type":"int24","internalType":"int24"},{"name":"hooks","type":"address","internalType":"contract IHooks"}]},{"name":"","type":"uint256","internalType":"uint256"},{"name":"","type":"uint256","internalType":"uint256"},{"name":"","type":"bytes","internalType":"bytes"}],"outputs":[],"stateMutability":"nonpayable"},{"type":"function","name":"afterInitialize","inputs":[{"name":"","type":"address","internalType":"contract IPoolManager"},{"name":"sender","type":"address","internalType":"address"},{"name":"","type":"tuple","internalType":"struct PoolKey","components":[{"name":"currency0","type":"address","internalType":"Currency"},{"name":"currency1","type":"address","internalType":"Currency"},{"name":"fee","type":"uint24","internalType":"uint24"},{"name":"tickSpacing","type":"int24","internalType":"int24"},{"name":"hooks","type":"address","internalType":"contract IHooks"}]},{"name":"","type":"uint160","internalType":"uint160"},{"name":"","type":"int24","internalType":"int24"}],"outputs":[],"stateMutability":"nonpayable"},{"type":"function","name":"afterRemoveLiquidity","inputs":[{"name":"","type":"address","internalType":"contract IPoolManager"},{"name":"","type":"address","internalType":"address"},{"name":"","type":"tuple","internalType":"struct PoolKey","components":[{"name":"currency0","type":"address","internalType":"Currency"},{"name":"currency1","type":"address","internalType":"Currency"},{"name":"fee","type":"uint24","internalType":"uint24"},{"name":"tickSpacing","type":"int24","internalType":"int24"},{"name":"hooks","type":"address","internalType":"contract IHooks"}]},{"name":"","type":"tuple","internalType":"struct ModifyLiquidityParams","components":[{"name":"tickLower","type":"int24","internalType":"int24"},{"name":"tickUpper","type":"int24","internalType":"int24"},{"name":"liquidityDelta","type":"int256","internalType":"int256"},{"name":"salt","type":"bytes32","internalType":"bytes32"}]},{"name":"","type":"int256","internalType":"BalanceDelta"},{"name":"","type":"int256","internalType":"BalanceDelta"},{"name":"","type":"bytes","internalType":"bytes"}],"outputs":[{"name":"","type":"tuple","internalType":"struct IMODLModule.BalanceDeltaResult","components":[{"name":"hasDelta","type":"bool","internalType":"bool"},{"name":"delta","type":"int256","internalType":"BalanceDelta"}]}],"stateMutability":"nonpayable"},{"type":"function","name":"afterSwap","inputs":[{"name":"","type":"address","internalType":"contract IPoolManager"},{"name":"sender","type":"address","internalType":"address"},{"name":"","type":"tuple","internalType":"struct PoolKey","components":[{"name":"currency0","type":"address","internalType":"Currency"},{"name":"currency1","type":"address","internalType":"Currency"},{"name":"fee","type":"uint24","internalType":"uint24"},{"name":"tickSpacing","type":"int24","internalType":"int24"},{"name":"hooks","type":"address","internalType":"contract IHooks"}]},{"name":"","type":"tuple","internalType":"struct SwapParams","components":[{"name":"zeroForOne","type":"bool","internalType":"bool"},{"name":"amountSpecified","type":"int256","internalType":"int256"},{"name":"sqrtPriceLimitX96","type":"uint160","internalType":"uint160"}]},{"name":"","type":"int256","internalType":"BalanceDelta"},{"name":"","type":"bytes","internalType":"bytes"}],"outputs":[{"name":"","type":"tuple","internalType":"struct IMODLModule.AfterSwapResult","components":[{"name":"hasDelta","type":"bool","internalType":"bool"},{"name":"delta","type":"int128","internalType":"int128"}]}],"stateMutability":"nonpayable"},{"type":"function","name":"beforeAddLiquidity","inputs":[{"name":"","type":"address","internalType":"contract IPoolManager"},{"name":"sender","type":"address","internalType":"address"},{"name":"","type":"tuple","internalType":"struct PoolKey","components":[{"name":"currency0","type":"address","internalType":"Currency"},{"name":"currency1","type":"address","internalType":"Currency"},{"name":"fee","type":"uint24","internalType":"uint24"},{"name":"tickSpacing","type":"int24","internalType":"int24"},{"name":"hooks","type":"address","internalType":"contract IHooks"}]},{"name":"","type":"tuple","internalType":"struct ModifyLiquidityParams","components":[{"name":"tickLower","type":"int24","internalType":"int24"},{"name":"tickUpper","type":"int24","internalType":"int24"},{"name":"liquidityDelta","type":"int256","internalType":"int256"},{"name":"salt","type":"bytes32","internalType":"bytes32"}]},{"name":"","type":"bytes","internalType":"bytes"}],"outputs":[],"stateMutability":"nonpayable"},{"type":"function","name":"beforeDonate","inputs":[{"name":"","type":"address","internalType":"contract IPoolManager"},{"name":"sender","type":"address","internalType":"address"},{"name":"","type":"tuple","internalType":"struct PoolKey","components":[{"name":"currency0","type":"address","internalType":"Currency"},{"name":"currency1","type":"address","internalType":"Currency"},{"name":"fee","type":"uint24","internalType":"uint24"},{"name":"tickSpacing","type":"int24","internalType":"int24"},{"name":"hooks","type":"address","internalType":"contract IHooks"}]},{"name":"","type":"uint256","internalType":"uint256"},{"name":"","type":"uint256","internalType":"uint256"},{"name":"","type":"bytes","internalType":"bytes"}],"outputs":[],"stateMutability":"nonpayable"},{"type":"function","name":"beforeInitialize","inputs":[{"name":"","type":"address","internalType":"contract IPoolManager"},{"name":"sender","type":"address","internalType":"address"},{"name":"","type":"tuple","internalType":"struct PoolKey","components":[{"name":"currency0","type":"address","internalType":"Currency"},{"name":"currency1","type":"address","internalType":"Currency"},{"name":"fee","type":"uint24","internalType":"uint24"},{"name":"tickSpacing","type":"int24","internalType":"int24"},{"name":"hooks","type":"address","internalType":"contract IHooks"}]},{"name":"","type":"uint160","internalType":"uint160"}],"outputs":[],"stateMutability":"nonpayable"},{"type":"function","name":"beforeRemoveLiquidity","inputs":[{"name":"","type":"address","internalType":"contract IPoolManager"},{"name":"sender","type":"address","internalType":"address"},{"name":"","type":"tuple","internalType":"struct PoolKey","components":[{"name":"currency0","type":"address","internalType":"Currency"},{"name":"currency1","type":"address","internalType":"Currency"},{"name":"fee","type":"uint24","internalType":"uint24"},{"name":"tickSpacing","type":"int24","internalType":"int24"},{"name":"hooks","type":"address","internalType":"contract IHooks"}]},{"name":"","type":"tuple","internalType":"struct ModifyLiquidityParams","components":[{"name":"tickLower","type":"int24","internalType":"int24"},{"name":"tickUpper","type":"int24","internalType":"int24"},{"name":"liquidityDelta","type":"int256","internalType":"int256"},{"name":"salt","type":"bytes32","internalType":"bytes32"}]},{"name":"","type":"bytes","internalType":"bytes"}],"outputs":[],"stateMutability":"nonpayable"},{"type":"function","name":"beforeSwap","inputs":[{"name":"","type":"address","internalType":"contract IPoolManager"},{"name":"sender","type":"address","internalType":"address"},{"name":"","type":"tuple","internalType":"struct PoolKey","components":[{"name":"currency0","type":"address","internalType":"Currency"},{"name":"currency1","type":"address","internalType":"Currency"},{"name":"fee","type":"uint24","internalType":"uint24"},{"name":"tickSpacing","type":"int24","internalType":"int24"},{"name":"hooks","type":"address","internalType":"contract IHooks"}]},{"name":"","type":"tuple","internalType":"struct SwapParams","components":[{"name":"zeroForOne","type":"bool","internalType":"bool"},{"name":"amountSpecified","type":"int256","internalType":"int256"},{"name":"sqrtPriceLimitX96","type":"uint160","internalType":"uint160"}]},{"name":"","type":"bytes","internalType":"bytes"}],"outputs":[{"name":"","type":"tuple","internalType":"struct IMODLModule.BeforeSwapResult","components":[{"name":"hasDelta","type":"bool","internalType":"bool"},{"name":"delta","type":"int256","internalType":"BeforeSwapDelta"},{"name":"hasNewFee","type":"bool","internalType":"bool"},{"name":"newFee","type":"uint24","internalType":"uint24"}]}],"stateMutability":"nonpayable"},{"type":"function","name":"enforceDonations","inputs":[],"outputs":[{"name":"","type":"bool","internalType":"bool"}],"stateMutability":"view"},{"type":"function","name":"enforceLiquidity","inputs":[],"outputs":[{"name":"","type":"bool","internalType":"bool"}],"stateMutability":"view"},{"type":"function","name":"enforceSwaps","inputs":[],"outputs":[{"name":"","type":"bool","internalType":"bool"}],"stateMutability":"view"},{"type":"function","name":"isAllowed","inputs":[{"name":"","type":"address","internalType":"address"}],"outputs":[{"name":"","type":"bool","internalType":"bool"}],"stateMutability":"view"},{"type":"function","name":"moduleName","inputs":[],"outputs":[{"name":"","type":"string","internalType":"string"}],"stateMutability":"pure"},{"type":"function","name":"moduleVersion","inputs":[],"outputs":[{"name":"","type":"string","internalType":"string"}],"stateMutability":"pure"},{"type":"function","name":"owner","inputs":[],"outputs":[{"name":"","type":"address","internalType":"address"}],"stateMutability":"view"},{"type":"function","name":"renounceOwnership","inputs":[],"outputs":[],"stateMutability":"nonpayable"},{"type":"function","name":"setBatchWhitelist","inputs":[{"name":"accounts","type":"address[]","internalType":"address[]"},{"name":"allowed","type":"bool","internalType":"bool"}],"outputs":[],"stateMutability":"nonpayable"},{"type":"function","name":"setEnforcement","inputs":[{"name":"liquidity","type":"bool","internalType":"bool"},{"name":"swaps","type":"bool","internalType":"bool"},{"name":"donations","type":"bool","internalType":"bool"}],"outputs":[],"stateMutability":"nonpayable"},{"type":"function","name":"setWhitelist","inputs":[{"name":"account","type":"address","internalType":"address"},{"name":"allowed","type":"bool","internalType":"bool"}],"outputs":[],"stateMutability":"nonpayable"},{"type":"function","name":"transferOwnership","inputs":[{"name":"newOwner","type":"address","internalType":"address"}],"outputs":[],"stateMutability":"nonpayable"},{"type":"event","name":"EnforcementUpdated","inputs":[{"name":"liquidity","type":"bool","indexed":false,"internalType":"bool"},{"name":"swaps","type":"bool","indexed":false,"internalType":"bool"},{"name":"donations","type":"bool","indexed":false,"internalType":"bool"}],"anonymous":false},{"type":"event","name":"OwnershipTransferred","inputs":[{"name":"previousOwner","type":"address","indexed":true,"internalType":"address"},{"name":"newOwner","type":"address","indexed":true,"internalType":"address"}],"anonymous":false},{"type":"event","name":"WhitelistUpdated","inputs":[{"name":"account","type":"address","indexed":true,"internalType":"address"},{"name":"allowed","type":"bool","indexed":false,"internalType":"bool"}],"anonymous":false},{"type":"error","name":"AddressNotWhitelisted","inputs":[{"name":"account","type":"address","internalType":"address"}]},{"type":"error","name":"NotAggregator","inputs":[{"name":"caller","type":"address","internalType":"address"}]},{"type":"error","name":"OwnableInvalidOwner","inputs":[{"name":"owner","type":"address","internalType":"address"}]},{"type":"error","name":"OwnableUnauthorizedAccount","inputs":[{"name":"account","type":"address","internalType":"address"}]}],"bytecode":{"object":"0x60a06040526002805462ffffff191662010101179055348015610020575f80fd5b5060405161114638038061114683398101604081905261003f916100f8565b338061006557604051631e4fbdf760e01b81525f60048201526024015b60405180910390fd5b61006e816100a9565b506001600160a01b038116610098576040516337705b1f60e01b81525f600482015260240161005c565b6001600160a01b0316608052610125565b5f80546001600160a01b038381166001600160a01b0319831681178455604051919092169283917f8be0079c531659141344cd1fd0a4f28419497f9722a3daafe3b4186f6b6457e09190a35050565b5f60208284031215610108575f80fd5b81516001600160a01b038116811461011e575f80fd5b9392505050565b608051610fd861016e5f395f81816103d6015281816104160152818161050901528181610577015281816105f501528181610701015281816107a601526108140152610fd85ff3fe608060405234801561000f575f80fd5b5060043610610184575f3560e01c80638da5cb5b116100dd578063babcc53911610088578063d35dd46211610063578063d35dd462146103be578063eb365adc146103d1578063f2fde38b146103f8575f80fd5b8063babcc5391461039c578063cab0dbeb146102fb578063cbd91096146101c3575f80fd5b8063ad66ca1f116100b8578063ad66ca1f14610188578063b9d7310d14610350578063baa3b4d714610363575f80fd5b80638da5cb5b146102d7578063933efaf3146102fb57806393f0899a1461030e575f80fd5b806353d6fd591161013d57806364f9868c1161011857806364f9868c146102af578063715018a6146102c25780638822daf6146102ca575f80fd5b806353d6fd591461022b5780635446fe951461023e57806361100e5d1461028d575f80fd5b8063249bca0a1161016d578063249bca0a146101b057806342a29c22146101c35780634558d100146101f8575f80fd5b80630653cc8e146101885780630d78e8841461019d575b5f80fd5b61019b610196366004610acd565b61040b565b005b61019b6101ab366004610b6a565b610477565b61019b6101be366004610baa565b6104fe565b6101d66101d1366004610c1e565b610559565b6040805182511515815260209283015192810192909252015b60405180910390f35b61020b610206366004610ccb565b6105d7565b60408051825115158152602092830151600f0b92810192909252016101ef565b61019b610239366004610d5e565b61066d565b61025161024c366004610d91565b6106d3565b6040516101ef91908151151581526020808301519082015260408083015115159082015260609182015162ffffff169181019190915260800190565b60025461029f90610100900460ff1681565b60405190151581526020016101ef565b60025461029f9062010000900460ff1681565b61019b610788565b60025461029f9060ff1681565b5f546001600160a01b03165b6040516001600160a01b0390911681526020016101ef565b61019b610309366004610dfc565b61079b565b60408051808201909152600981527f57686974656c697374000000000000000000000000000000000000000000000060208201525b6040516101ef9190610e68565b61019b61035e366004610e9d565b610809565b60408051808201909152600581527f312e302e300000000000000000000000000000000000000000000000000000006020820152610343565b61029f6103aa366004610ef6565b60016020525f908152604090205460ff1681565b61019b6103cc366004610f18565b610863565b6102e37f000000000000000000000000000000000000000000000000000000000000000081565b61019b610406366004610ef6565b61093b565b336001600160a01b037f0000000000000000000000000000000000000000000000000000000000000000161461045b576040516337705b1f60e01b81523360048201526024015b60405180910390fd5b60025460ff161561046f5761046f85610978565b505050505050565b61047f6109bb565b6002805482151562010000810262ff000019861515610100810261ff00198a151590811661ffff19909716969096171791909116919091179093556040805192835260208301939093528183015290517ffce13f654758efa6c1ff62e94d0eca8781e345f3be9666234296a31a22df34419181900360600190a1505050565b336001600160a01b037f00000000000000000000000000000000000000000000000000000000000000001614610549576040516337705b1f60e01b8152336004820152602401610452565b61055284610978565b5050505050565b604080518082019091525f8082526020820152336001600160a01b037f000000000000000000000000000000000000000000000000000000000000000016146105b7576040516337705b1f60e01b8152336004820152602401610452565b50604080518082019091525f808252602082015298975050505050505050565b604080518082019091525f8082526020820152336001600160a01b037f00000000000000000000000000000000000000000000000000000000000000001614610635576040516337705b1f60e01b8152336004820152602401610452565b600254610100900460ff161561064e5761064e87610978565b50604080518082019091525f8082526020820152979650505050505050565b6106756109bb565b6001600160a01b0382165f81815260016020908152604091829020805460ff191685151590811790915591519182527ff93f9a76c1bf3444d22400a00cb9fe990e6abe9dbb333fda48859cfee864543d910160405180910390a25050565b604080516080810182525f808252602082018190529181018290526060810191909152336001600160a01b037f00000000000000000000000000000000000000000000000000000000000000001614610741576040516337705b1f60e01b8152336004820152602401610452565b600254610100900460ff161561075a5761075a86610978565b50604080516080810182525f8082526020820181905291810182905260608101919091529695505050505050565b6107906109bb565b6107995f6109e7565b565b336001600160a01b037f000000000000000000000000000000000000000000000000000000000000000016146107e6576040516337705b1f60e01b8152336004820152602401610452565b60025462010000900460ff16156108005761080086610978565b50505050505050565b336001600160a01b037f00000000000000000000000000000000000000000000000000000000000000001614610854576040516337705b1f60e01b8152336004820152602401610452565b61085d83610978565b50505050565b61086b6109bb565b815f5b81811015610552578260015f87878581811061088c5761088c610f8e565b90506020020160208101906108a19190610ef6565b6001600160a01b0316815260208101919091526040015f20805460ff19169115159190911790558484828181106108da576108da610f8e565b90506020020160208101906108ef9190610ef6565b6001600160a01b03167ff93f9a76c1bf3444d22400a00cb9fe990e6abe9dbb333fda48859cfee864543d8460405161092b911515815260200190565b60405180910390a260010161086e565b6109436109bb565b6001600160a01b03811661096c57604051631e4fbdf760e01b81525f6004820152602401610452565b610975816109e7565b50565b6001600160a01b0381165f9081526001602052604090205460ff166109755760405163eadb950f60e01b81526001600160a01b0382166004820152602401610452565b5f546001600160a01b031633146107995760405163118cdaa760e01b8152336004820152602401610452565b5f80546001600160a01b038381167fffffffffffffffffffffffff0000000000000000000000000000000000000000831681178455604051919092169283917f8be0079c531659141344cd1fd0a4f28419497f9722a3daafe3b4186f6b6457e09190a35050565b6001600160a01b0381168114610975575f80fd5b5f60a08284031215610a72575f80fd5b50919050565b5f60808284031215610a72575f80fd5b5f8083601f840112610a98575f80fd5b50813567ffffffffffffffff811115610aaf575f80fd5b602083019150836020828501011115610ac6575f80fd5b9250929050565b5f805f805f806101808789031215610ae3575f80fd5b8635610aee81610a4e565b95506020870135610afe81610a4e565b9450610b0d8860408901610a62565b9350610b1c8860e08901610a78565b925061016087013567ffffffffffffffff811115610b38575f80fd5b610b4489828a01610a88565b979a9699509497509295939492505050565b80358015158114610b65575f80fd5b919050565b5f805f60608486031215610b7c575f80fd5b610b8584610b56565b9250610b9360208501610b56565b9150610ba160408501610b56565b90509250925092565b5f805f805f6101208688031215610bbf575f80fd5b8535610bca81610a4e565b94506020860135610bda81610a4e565b9350610be98760408801610a62565b925060e0860135610bf981610a4e565b9150610100860135600281900b8114610c10575f80fd5b809150509295509295909350565b5f805f805f805f806101c0898b031215610c36575f80fd5b8835610c4181610a4e565b97506020890135610c5181610a4e565b9650610c608a60408b01610a62565b9550610c6f8a60e08b01610a78565b9450610160890135935061018089013592506101a089013567ffffffffffffffff811115610c9b575f80fd5b610ca78b828c01610a88565b999c989b5096995094979396929594505050565b5f60608284031215610a72575f80fd5b5f805f805f805f610180888a031215610ce2575f80fd5b8735610ced81610a4e565b96506020880135610cfd81610a4e565b9550610d0c8960408a01610a62565b9450610d1b8960e08a01610cbb565b9350610140880135925061016088013567ffffffffffffffff811115610d3f575f80fd5b610d4b8a828b01610a88565b989b979a50959850939692959293505050565b5f8060408385031215610d6f575f80fd5b8235610d7a81610a4e565b9150610d8860208401610b56565b90509250929050565b5f805f805f806101608789031215610da7575f80fd5b8635610db281610a4e565b95506020870135610dc281610a4e565b9450610dd18860408901610a62565b9350610de08860e08901610cbb565b925061014087013567ffffffffffffffff811115610b38575f80fd5b5f805f805f805f610140888a031215610e13575f80fd5b8735610e1e81610a4e565b96506020880135610e2e81610a4e565b9550610e3d8960408a01610a62565b945060e08801359350610100880135925061012088013567ffffffffffffffff811115610d3f575f80fd5b602081525f82518060208401528060208501604085015e5f604082850101526040601f19601f83011684010191505092915050565b5f805f806101008587031215610eb1575f80fd5b8435610ebc81610a4e565b93506020850135610ecc81610a4e565b9250610edb8660408701610a62565b915060e0850135610eeb81610a4e565b939692955090935050565b5f60208284031215610f06575f80fd5b8135610f1181610a4e565b9392505050565b5f805f60408486031215610f2a575f80fd5b833567ffffffffffffffff811115610f40575f80fd5b8401601f81018613610f50575f80fd5b803567ffffffffffffffff811115610f66575f80fd5b8660208260051b8401011115610f7a575f80fd5b602091820194509250610ba1908501610b56565b634e487b7160e01b5f52603260045260245ffdfea2646970667358221220f14d370dce2d4aae363265f49ecfb67d8dfe3390fda13ada6f15c2c763866fb964736f6c634300081a0033","linkReferences":{}},"methodIdentifiers":{"AGGREGATOR()":"eb365adc","afterAddLiquidity(address,address,(address,address,uint24,int24,address),(int24,int24,int256,bytes32),int256,int256,bytes)":"42a29c22","afterDonate(address,address,(address,address,uint24,int24,address),uint256,uint256,bytes)":"933efaf3","afterInitialize(address,address,(address,address,uint24,int24,address),uint160,int24)":"249bca0a","afterRemoveLiquidity(address,address,(address,address,uint24,int24,address),(int24,int24,int256,bytes32),int256,int256,bytes)":"cbd91096","afterSwap(address,address,(address,address,uint24,int24,address),(bool,int256,uint160),int256,bytes)":"4558d100","beforeAddLiquidity(address,address,(address,address,uint24,int24,address),(int24,int24,int256,bytes32),bytes)":"ad66ca1f","beforeDonate(address,address,(address,address,uint24,int24,address),uint256,uint256,bytes)":"cab0dbeb","beforeInitialize(address,address,(address,address,uint24,int24,address),uint160)":"b9d7310d","beforeRemoveLiquidity(address,address,(address,address,uint24,int24,address),(int24,int24,int256,bytes32),bytes)":"0653cc8e","beforeSwap(address,address,(address,address,uint24,int24,address),(bool,int256,uint160),bytes)":"5446fe95","enforceDonations()":"64f9868c","enforceLiquidity()":"8822daf6","enforceSwaps()":"61100e5d","isAllowed(address)":"babcc539","moduleName()":"93f0899a","moduleVersion()":"baa3b4d7","owner()":"8da5cb5b","renounceOwnership()":"715018a6","setBatchWhitelist(address[],bool)":"d35dd462","setEnforcement(bool,bool,bool)":"0d78e884","setWhitelist(address,bool)":"53d6fd59","transferOwnership(address)":"f2fde38b"},"id":45}